:040000006AEF00F0B3
:0600080044825BED09F0EB
:100018004480D8CF28F0E8CF29F0E0CF2AF0FACFF3
:100028002BF0FBCF2CF0E9CF2DF0EACF2EF0E1CF6B
:100038002FF0E2CF30F0D9CF31F0DACF32F0F3CF72
:1000480033F0F4CF34F0F6CF35F0F7CF36F0F8CF01
:1000580037F0F5CF38F044C039F045C03AF046C023
:100068003BF047C03CF09EAA05D0B8EC0BF018EC6A
:1000780005F09E9A3CC047F03BC046F03AC045F0B8
:1000880039C044F038C0F5FF37C0F8FF36C0F7FF75
:1000980035C0F6FF34C0F4FF33C0F3FF32C0DAFFD7
:1000A80031C0D9FF30C0E2FF2FC0E1FF2EC0EAFF08
:1000B8002DC0E9FF2CC0FBFF2BC0FAFF2AC0E0FFD0
:1000C80029C0E8FF28C0D8FF4490100059EF0AF073
:100800000001001000000100103031323334353661
:10081000373839616263646566005B415D005B4D3A
:100820005D002578004100450049004C0050005211
:10083000005500240026003A0000050E0001FB6F61
:100840000F0EFA6FF10EE82EFED7FA2FFCD7FB2F12
:10085000FAD773EC0BF02D0E0001E86F080EE96F6C
:10086000250EEB6F800EEA6F010EEC6F06EC09F0BF
:10087000010E2FEC0BF041EC0BF064EC0BF0050ECD
:100880000001FB6F0F0EFA6FF10EE82EFED7FA2F64
:10089000FCD7FB2FFAD7000E0001D66F000ED56FE4
:1008A0000001D951D8B498D0000ED96F01EC0BF0EB
:1008B00020EEC4F0050EEBCFDBFFE806FCE2C6C07D
:1008C000DAF0C7C0DBF02B0E0001DC6F080EDD6F25
:1008D000DAEC0AF00001DA51DB11D8A403D08CEC79
:1008E0000BF07AD0C6C0DAF0C7C0DBF0310E0001E1
:1008F000DC6F080EDD6FDAEC0AF00001DA51DB1173
:10090000D8A403D093EC0BF067D0C6C0DAF0C7C010
:10091000DBF0290E0001DC6F080EDD6FDAEC0AF067
:100920000001DA51DB11D8A409D0C8C0D9FFC9C071
:10093000DAFFDF50D00F53EC0BF04ED0C6C0DAF028
:10094000C7C0DBF02F0E0001DC6F080EDD6FDAECA4
:100950000AF00001DA51DB11D8A40BD0680E0001B7
:10096000FA6FE40EE82EFED7FA2FFCD700F0FF0056
:1009700033D0C6C0DAF0C7C0DBF02D0E0001DC6F4B
:10098000080EDD6FDAEC0AF00001DA51DB11D8B4A1
:1009900023D0C6C0DAF0C7C0DBF0250EDC6F080E2E
:1009A000DD6FDAEC0AF00001DA51DB11D8A409D0CE
:1009B000C8C0D9FFC9C0DAFFDF50D00FAEEC0BF0D2
:1009C0000BD0270E0001EC6F080EED6F310EEE6FAD
:1009D000080EEF6FC1EC07F00001D851D8B460D712
:1009E000000ED86FACEC09F031EC08F00001D551E5
:1009F000D619D8A40CD0D605D8B409D051D7000E3A
:100A000004D00A0ED7270ED07F0ED76F0BD0D65149
:100A1000000AD8B4F4D7010AD8B4F3D7030AD8B47B
:100A2000F3D7EDD7D75118EC0BF0D6C0D5F038D7A7
:100A3000276EB5D0260E2718D8A410D0000E0101BD
:100A40000A6F000E3D6F000E706F000EA36F000E58
:100A50000001D96F010E0101A56F1200000E010106
:100A6000A56F12003A0E2718D8A40DD0020EA56F5C
:100A70000A51010D000EF324D96E010EF420DA6E36
:100A8000000EDF6E12000A51010D000EF324D96E24
:100A9000010EF420DA6E27C0DFFF0A2B0A0E0A656A
:100AA0001200000E0A6F12003A0E2718D8A40DD0BB
:100AB000030EA56F3D51010D0B0EF324D96E010EEF
:100AC000F420DA6E000EDF6E12003D51010D0B0EA8
:100AD000F324D96E010EF420DA6E27C0DFFF3D2B20
:100AE000320E3D651200000E3D6F12003A0E2718BF
:100AF000D8A40DD0040EA56F7051010D3E0EF32445
:100B0000D96E010EF420DA6E000EDF6E1200705105
:100B1000010D3E0EF324D96E010EF420DA6E27C0CB
:100B2000DFFF702B320E70651200000E706F120026
:100B30003A0E2718D8A40DD0050EA56FA351010DAC
:100B4000710EF324D96E010EF420DA6E000EDF6E02
:100B50001200A351010D710EF324D96E010EF42081
:100B6000DA6E27C0DFFFA32B320EA3651200000E42
:100B7000A36F1200240E2718D8A409D029EC0AF07C
:100B8000000E0101A56F010E0001D96F1200275060
:100B9000D00F0101A46F1200000EA56F1200010119
:100BA000A551000AD8B446D7010AD8B45BD7030AC6
:100BB000D8B47AD7010AD8B499D7070AD8B4B8D725
:100BC000010AD8B4D7D7E8D7E40E0001E56F000ECC
:100BD000E66F8BD0250EEB19D8B404D0EB519AEC0C
:100BE0000BF083D0000E0001E46F04D0EB519AECBF
:100BF0000BF07BD0E1C0F6FFE2C0F7FFE3C0F8FFE7
:100C0000010E0001E127000EE223E323F8BA03D02E
:100C10000800F55005D0F6CFE9FFF7CFEAFFEF5017
:100C20000001EB6FEB51000AD8B41200780AD8A487
:100C3000DDD7E5C0D9FFE6C0DAFFDECFE8F0DDCFD3
:100C4000E9F0020E0001E527000EE623010EEB6F2E
:100C500014D0EB51020D010EF324F66E080EF420B1
:100C6000F76EF86A000EF8220900F550E85D0900F9
:100C7000F550E959D8A005D0EB2B040EEB19D8A4F8
:100C8000E8D7EBC0EAF02CD0E8C0DAF0E9C0DBF03E
:100C9000EA51020D010EF324F66E080EF420F76EF1
:100CA000F86A000EF8220900F5CFDCF00A00F5CF53
:100CB000DDF087EC0AF00001DA510F0BE76FE75126
:100CC000010D090EF324F66E080EF420F76EF86A93
:100CD000000EF8220800F5CFEBF0EB519AEC0BF088
:100CE0000001EA07EA29D8A4CFD7E1C0F6FFE2C0A5
:100CF000F7FFE3C0F8FF010E0001E127000EE22339
:100D0000E323F8BA03D00800F55005D0F6CFE9FF89
:100D1000F7CFEAFFEF500001EB6FEB51D8B41200B0
:100D200059D71D0E206E000E216E85D0250E261877
:100D3000D8B404D02650B3EC0BF07DD0000E1F6E5B
:100D400004D02650B3EC0BF076D01AC0F6FF1BC0CF
:100D5000F7FF1CC0F8FF010E1A26000E1B221C22F2
:100D6000F8BA03D00800F55005D0F6CFE9FFF7CF69
:100D7000EAFFEF50266E2650000AD8B41200780A17
:100D8000D8A4DFD720C0D9FF21C0DAFFDECF23F0FF
:100D9000DDCF24F0020E2026000E2122010E266E49
:100DA00014D02650020D010EF324F66E080EF42026
:100DB000F76EF86A000EF8220900F550235C09006E
:100DC000F5502458D8A005D0262A040E2618D8A4F9
:100DD000E8D726C025F02BD023C013F024C014F090
:100DE0002550020D010EF324F66E080EF420F76E66
:100DF000F86A000EF8220900F5CF15F00A00F5CFC9
:100E000016F0B1EC0AF013500F0B226E2250010DB8
:100E1000090EF324F66E080EF420F76EF86A000E41
:100E2000F8220800F5CF26F02650B3EC0BF025068B
:100E30002528D8A4D1D71AC0F6FF1BC0F7FF1CC0C5
:100E4000F8FF010E1A26000E1B221C22F8BA03D04E
:100E50000800F55005D0F6CFE9FFF7CFEAFFEF50D5
:100E6000266E2650D8B4120061D70001DD6F3F0E08
:100E700093163F0E9312DDC0D3F00001D46B000E29
:100E8000DE6F71D0DE510A0D600EF324D96E000EB4
:100E9000F420DA6EDEC0DFFFDE510A0D010EF3260C
:100EA000000EF422600EF324D96E000EF420DA6EE8
:100EB000010EDF6EDE510A0D020EF326000EF42243
:100EC000600EF324D96E000EF420DA6E810EDE6E11
:100ED0000F0EDD6EDE510A0D040EF326000EF42215
:100EE000600EF324D96E000EF420DA6E070EDF6E6A
:100EF000DE510A0D060EF326000EF422600EF324D6
:100F0000D96E000EF420DA6E000EDF6EDE510A0D8F
:100F1000050EF326000EF422600EF324D96E000EA7
:100F2000F420DA6E010EDF6EDE510A0D070EF32695
:100F3000000EF422600EF324D96E000EF420DA6E57
:100F4000810EDE6E0F0EDD6EDE510A0D090EF326E8
:100F5000000EF422600EF324D96E000EF420DA6E37
:100F6000DEC0DFFFDE2BDE51DA6FDB6BD351DA5DE3
:100F7000DB51800ADC6FD451800ADC59D8B01200F2
:100F800081D741C0E1F042C0E2F00001E151E2113D
:100F9000D8A4000EE36FE4EC05F0FCC0E1F0FDC066
:100FA000E2F00001E151E211D8A4000EE36FE4EC9D
:100FB00005F0D0C0E1F0D1C0E2F0D2C0E3F0E4EC43
:100FC00005F0370E0001E16F080EE26FE151E2110A
:100FD000D8A4000EE36FE4EC05F0ECC0E1F0EDC046
:100FE000E2F00001E36BE151E211D8B405D0070E45
:100FF000ED6501D001D0E38BE4EC05F0370E000184
:10100000E16F080EE26FE151E211D8A4000EE36F28
:10101000E4EC05F0EEC0E1F0EFC0E2F00001E36BBC
:10102000E151E211D8B405D0070EEF6501D001D02F
:10103000E38BE4EC05F03FC0E1F040C0E2F00001DA
:10104000E151E211D8A4000EE36FE4EC05F0060EC6
:101050000001F06F300EE82EFED7F02FFCD700F025
:101060001200000E0001F96F5CD0F9510A0D060E56
:10107000F326000EF422600EF324D96E000EF42045
:10108000DA6EF9510A0D050EF326000EF422600EF9
:10109000F324E16E000EF420E26EDE50E618D8B4C0
:1010A0003FD0F9510A0D600EF324D96E000EF420E2
:1010B000DA6E00EEDAF0090EDBCFEBFFE806FCE2B9
:1010C000F40EE46F000EE56FF70EE66F000EE76FAB
:1010D000F9EC09F0F40E0001EC6F000EED6FF70E65
:1010E000EE6F000EEF6FC1EC07F00001F9510A0D31
:1010F000060EF326000EF422600EF324D96E000EC5
:10110000F420DA6EF9510A0D050EF326000EF422D2
:10111000600EF324E16E000EF420E26EDFCFE7FFF5
:10112000F92BF951F16FF26BD351F15DF251800A55
:10113000F36FD451800AF359D8B0120096D7000E3D
:101140000001E36FE1AF0AD0E11FE01FDF1FDE6D9A
:10115000000EDF23E023E123010EE36FDDAF0AD0B1
:10116000DD1FDC1FDB1FDA6D000EDB23DC23DD233C
:10117000010EE31B000EE46F000EE56F000EE66F3C
:10118000000EE76FDE51DF11E011E111D8B42AD073
:10119000010EE26F06D0D890DE37DF37E037E13757
:1011A000E22BE1AFF8D7D890E437E537E637E737F9
:1011B000DE51DA5DDF51DB59E051DC59E151DD5997
:1011C000D8A009D0DE51DA5FDF51DB5BE051DC5B98
:1011D000E151DD5BE481D890E133E033DF33DE338E
:1011E000E22FE1D7E351D8B408D0E71FE61FE51F8F
:1011F000E46D000EE523E623E723E4C0DAF0E5C062
:10120000DBF0E6C0DCF0E7C0DDF01200949E948CC9
:10121000E8C0D0F0E9C0D1F00001D051D111D8A47C
:10122000000ED26F000ED96F000E2FEC0BF0AC9CAD
:10123000AC98AC94AB9CB89AB898B896AB94AB9277
:10124000000EAE6EEAC0DEF0EBC0DFF00001E06B36
:10125000E16B000EDA6F240EDB6FF40EDC6F000E14
:10126000DD6F9FEC08F0DAC0EDF0DBC0EEF0DCC023
:10127000EFF0DDC0F0F0EDC0DAF0EEC0DBF0EFC073
:10128000DCF0F0C0DDF0400E0001DE6F000EDF6F1D
:10129000000EE06F000EE16F9FEC08F00001DA0530
:1012A000AF6EEC51D8B41200D08EF28EF28C9E9AB2
:1012B0009F9A9D8A12000600FACF01F0FBCF02F040
:1012C000E9CF03F0EACF04F0E1CF05F0E2CF06F07A
:1012D000D9CF07F0DACF08F0F3CF09F0F4CF0AF056
:1012E000F6CF0BF0F7CF0CF0F8CF0DF0F5CF0EF0F6
:1012F00044C00FF045C010F046C011F047C012F0D6
:10130000F2A404D0010E0001D86FF29412C047F08D
:1013100011C046F010C045F00FC044F00EC0F5FFFC
:101320000DC0F8FF0CC0F7FF0BC0F6FF0AC0F4FFBA
:1013300009C0F3FF08C0DAFF07C0D9FF06C0E2FF0B
:1013400005C0E1FF04C0EAFF03C0E9FF02C0FBFFE4
:1013500001C0FAFF44921100000E0001DE6F3BD085
:10136000DE510A0D060EF326000EF422600EF32461
:10137000D96E000EF420DA6EDE510A0D090EF32646
:10138000000EF422600EF324E16E000EF420E26EF3
:10139000E750DA6FDE510A0D070EF326000EF42235
:1013A000600EF324E16E000EF420E26EE6CFDBF077
:1013B000E5CFDCF0DBC0E1FFDCC0E2FFE750DD6F32
:1013C000DA2B02D0D890DD33DA2FFCD70001DD51C3
:1013D000010BDF6EDE2BDE51DA6FDB6BD351DA5D92
:1013E000DB51800ADC6FD451800ADC59D8B012007E
:1013F000B7D7E4C0D9FFE5C0DAFF440EDF6E0001C5
:1014000020EE01F0E451D926E551DA22DA51300F0D
:10141000DF6E20EE02F0E451D926E551DA22000E0B
:10142000DF6EE051D8B406D0E6C0D9FFE7C0DAFFDE
:10143000430E05D0E6C0D9FFE7C0DAFF4F0EDF6EDE
:1014400020EE01F0E651D926E751DA22000EDF6ED8
:10145000120041C01AF042C01BF01A501B10D8A451
:10146000000E1C6E91EC06F03DC01AF03EC01BF061
:101470001A501B10D8A4000E1C6E91EC06F0220E20
:101480001A6E080E1B6E1A501B10D8A4000E1C6E8C
:10149000A4C11DF01E6A91EC06F03FC01AF040C0D6
:1014A0001BF01A501B10D8A4000E1C6E91EC06F015
:1014B00012007E0EF66E170EF76E000EF86E090023
:1014C000F5CFFCF00900F5CFFDF0780EF66E170EA3
:1014D000F76E000EF86E00EE3DF010EE06F009001B
:1014E000F5CFEEFFE550E150FAE101EE00F0A60E77
:1014F000EE6AE806FDE100EE60F07A0EEE6AE806BC
:10150000FDE1436A4490449200011DEF04F0000E97
:101510000001DF6F000EDE6FDC51DD11D8B41CD08E
:10152000010EE06F04D0D890DC37DD37E02BDDAF63
:10153000FAD7D890DE37DF37DC51DA5DDD51DB5981
:10154000D8A005D0DC51DA5FDD51DB5BDE81D890BD
:10155000DD33DC33E02FEDD7DEC0DAF0DFC0DBF0C7
:101560001200000E186E000E176E15501610D8B42B
:101570001CD0010E196E04D0D89015361636192AD3
:1015800016AEFAD7D890173618361550135C165089
:101590001458D8A005D01550135E1650145A178051
:1015A000D89016321532192EEDD717C013F018C087
:1015B00014F0120005D00001DA4BDB2BDC4BDD2BE5
:1015C000DAC0D9FFDBC0DAFFDF500001DE6FDCC01C
:1015D000F6FFDDC0F7FFF86A0800F5500008DE25C9
:1015E000DF6FDF51D8A407D0DAC0D9FFDBC0DAFF44
:1015F000DF50D8A4E0D7DF51DA6FDB6BDABFDB074F
:1016000012000B0E0001CA6F010ECB6F3E0ECC6FA5
:10161000010ECD6F710ECE6F010ECF6F20EECAF0AE
:1016200000EEDAF0050EDBCFEBFFE806FCE212007D
:101630000001DA6F0001DA51D8B40AD0CAB405D07B
:10164000BD50F00B0C09BD6ECA84DAC0BEFF12009B
:10165000BD90BD92BD94BD96CA94829412000001C3
:10166000DA6F0001DA51D8B406D0949E948CAC8A1B
:10167000AB88AB8E1200949E949CAC9AAB98AB9EB8
:101680001200000E82EC0BF0D59CD59AD598D59619
:10169000D550F80B0209D56ED08EF28EF28CF294F2
:1016A000F184F28A12000001DF6F0001DF51D8A43B
:1016B00002D0010EDF6FDF5135EC07F08CEC0BF040
:1016C000010E82EC0BF01200CB68CA94CA50FC0BDE
:1016D0000109CA6ECA96CA98CA9ACA9C1F0EBE6EE3
:1016E000CF0EBD161200000E926E000E806E000E20
:1016F000936E000E816E000E946E000E826E0F0EC1
:10170000C16E12000001DA6F0001DA51D8B402D0C4
:10171000D58E1200D59E120062C0D9FF63C0DAFFD9
:10172000C00EDF12120062C0D9FF63C0DAFF3F0EA5
:10173000DF1612000001DB6F0001DB51A1EC0BF0A2
:1017400012000001DA6FACA2FED7DAC0ADFF1200C2
:10175000136EACA2FED713C0ADFF12000001DA6F0A
:10176000DAC0D6F01200146E1450A8EC0BF0120080
:10177000AB50AB50AE5012001A08330835081E08A3
:020000040020DA
:08000000FFFFFFFFFFFFFFFF00
:020000040030CA
:0E000000040C1F1EFF8080FF0FC00FE00F409A
:00000001FF
