:040000006AEF00F0B3
:100018004180D8CF19F0E8CF1AF0E0CF1BF0FACF23
:100028001CF0FBCF1DF0E9CF1EF0EACF1FF0E1CFA7
:1000380020F0E2CF21F0D9CF22F0DACF23F0F3CFAE
:1000480024F0F4CF25F0F6CF26F0F7CF27F0F8CF3D
:1000580028F0F5CF29F041C02AF042C02BF043C068
:100068002CF044C02DF09EAA05D0E4EC08F01BEC5F
:1000780004F09E9A2DC044F02CC043F02BC042F0EF
:100088002AC041F029C0F5FF28C0F8FF27C0F7FFB4
:1000980026C0F6FF25C0F4FF24C0F3FF23C0DAFF13
:1000A80022C0D9FF21C0E2FF20C0E1FF1FC0EAFF44
:1000B8001EC0E9FF1DC0FBFF1CC0FAFF1BC0E0FF0C
:1000C8001AC0E8FF19C0D8FF4190100088EF07F068
:100800000001001000000100103031323334353661
:1008100037383961626364656600537461727400CD
:100820005B415D005B4D5D00257800240026003AA9
:10083000004900500000186EB5D0260E1818D8A434
:1008400010D0000E01010A6F000E3D6F000E706F98
:10085000000EA36F000E00018E6F010E0101A56F47
:100860001200000E0101A56F12003A0E1818D8A44C
:100870000DD0020EA56F0A51010D000EF324D96EA2
:10088000010EF420DA6E000EDF6E12000A51010D27
:10089000000EF324D96E010EF420DA6E18C0DFFFCB
:1008A0000A2B0A0E0A651200000E0A6F12003A0E99
:1008B0001818D8A40DD0030EA56F3D51010D0B0ED5
:1008C000F324D96E010EF420DA6E000EDF6E1200F2
:1008D0003D51010D0B0EF324D96E010EF420DA6E9A
:1008E00018C0DFFF3D2B320E3D651200000E3D6F3C
:1008F00012003A0E1818D8A40DD0040EA56F70512E
:10090000010D3E0EF324D96E010EF420DA6E000EB6
:10091000DF6E12007051010D3E0EF324D96E010EF0
:10092000F420DA6E18C0DFFF702B320E70651200F3
:10093000000E706F12003A0E1818D8A40DD0050ED4
:10094000A56FA351010D710EF324D96E010EF42091
:10095000DA6E000EDF6E1200A351010D710EF3244A
:10096000D96E010EF420DA6E18C0DFFFA32B320E11
:10097000A3651200000EA36F1200240E1818D8A44D
:1009800009D0BDEC07F0000E0101A56F010E0001BA
:100990008E6F12001850D00F0101A46F1200000ECC
:1009A000A56F12000101A551000AD8B446D7010A6B
:1009B000D8B45BD7030AD8B47AD7010AD8B499D788
:1009C000070AD8B4B8D7010AD8B4D7D7E8D76A0E7F
:1009D00000016F6F000E706F7ED0250E7419D8B4B1
:1009E00004D07451CBEC08F076D0000E00016D6F8E
:1009F00004D07451CBEC08F06ED067C06AF068C0C8
:100A00006BF069C06CF00001672B000E682369234E
:100A10006AC0F6FF6BC0F7FF6CC0F8FF0800F5CFA7
:100A200074F07451000AD8B41200780AD8A4E1D73F
:100A30006FC0D9FF70C0DAFFDECF71F0DDCF72F08A
:100A4000020E00016F27000E7023010E746F11D08B
:100A50007451020D010EF324F66E080EF420F76EA9
:100A60000900F550715D0900F5507259D8A005D004
:100A7000742B040E7419D8A4EBD774C073F026D06D
:100A800071C060F072C061F07351020D010EF32469
:100A9000F66E080EF420F76E0900F5CF62F00A003A
:100AA000F5CF63F01BEC08F0000160510F0B6E6F87
:100AB0006E51010D090EF324F66E080EF420F76E48
:100AC0000800F5CF74F07451CBEC08F00001730707
:100AD0007329D8A4D5D767C06AF068C06BF069C025
:100AE0006CF00001672B000E682369236AC0F6FFD3
:100AF0006BC0F7FF6CC0F8FF0800F5CF74F07451BD
:100B0000D8B412006AD70B0E116E000E126E79D097
:100B1000250E1718D8B404D01750DFEC08F071D0A8
:100B2000000E106E04D01750DFEC08F06AD008C039
:100B30000DF009C00EF00AC00FF0082A000E0922BD
:100B40000A220DC0F6FF0EC0F7FF0FC0F8FF080025
:100B5000F5CF17F01750000AD8B41200780AD8A4BD
:100B6000E2D711C0D9FF12C0DAFFDECF14F0DDCF1B
:100B700015F0020E1126000E1222010E176E11D072
:100B80001750020D010EF324F66E080EF420F76ED6
:100B90000900F550145C0900F5501558D8A005D08F
:100BA000172A040E1718D8A4EBD717C016F025D0B3
:100BB00014C001F015C002F01650020D010EF3240E
:100BC000F66E080EF420F76E0900F5CF03F00A0068
:100BD000F5CF04F045EC08F001500F0B136E1350E5
:100BE000010D090EF324F66E080EF420F76E0800CE
:100BF000F5CF17F01750DFEC08F016061628D8A42A
:100C0000D7D708C00DF009C00EF00AC00FF0082AAF
:100C1000000E09220A220DC0F6FF0EC0F7FF0FC01A
:100C2000F8FF0800F5CF17F01750D8B4120070D7AE
:100C3000000E0001696F67AF0AD0671F661F651F4E
:100C4000646D000E652366236723010E696F63AF31
:100C50000AD0631F621F611F606D000E6123622353
:100C60006323010E691B000E6A6F000E6B6F000E8E
:100C70006C6F000E6D6F6451651166116711D8B409
:100C80002AD0010E686F06D0D89064376537663772
:100C90006737682B67AFF8D7D8906A376B376C37F0
:100CA0006D376451605D6551615966516259675194
:100CB0006359D8A009D06451605F6551615B66518A
:100CC000625B6751635B6A81D890673366336533D3
:100CD0006433682FE1D76951D8B408D06D1F6C1FF9
:100CE0006B1F6A6D000E6B236C236D236AC060F06E
:100CF0006BC061F06CC062F06DC063F012003FC069
:100D000067F040C068F0000167516811D8A4000E78
:100D1000696FE7EC04F08FC067F090C068F00001E5
:100D200067516811D8A4000E696FE7EC04F08BC01E
:100D300067F08CC068F08DC069F0E7EC04F02F0E0E
:100D40000001676F080E686F67516811D8A4000E24
:100D5000696FE7EC04F075C067F076C068F00001D9
:100D600067516811D8A4000E696FE7EC04F02F0EEC
:100D70000001676F080E686F67516811D8A4000EF4
:100D8000696FE7EC04F077C067F078C068F00001A5
:100D900067516811D8A4000E696FE7EC04F03DC0FC
:100DA00067F03EC068F0000167516811D8A4000EDA
:100DB000696FE7EC04F0060E0001796F300EE82E43
:100DC000FED7792FFCD700F01200000E0001676FEC
:100DD000000E666F67BF06D0675148E1050E665D7D
:100DE000D8B0120066C060F067C061F0000E636F9B
:100DF000030E626F96EC08F07C0E00016025D96E40
:100E0000000E6121DA6E66C0DFFF66C060F067C069
:100E100061F0000E636F030E626F96EC08F0020E35
:100E200000016027000E61237C0E6025D96E000E44
:100E30006121DA6E010EDF6E66C060F067C061F09E
:100E4000000E636F030E626F96EC08F0010E000156
:100E50006027000E61237C0E6025D96E000E612193
:100E6000DA6E000EDF6E664B672BB4D71200949ECD
:100E7000948C6EC08BF06FC08CF000018B518C1184
:100E8000D8A4000E8D6F000E8E6F000EAAEC08F035
:100E9000AC9CAC98AC94AB9CB89AB898B89670C01F
:100EA00064F071C065F00001666B676B000E606FE7
:100EB000240E616FF40E626F000E636F18EC06F083
:100EC00060C073F061C074F062C075F063C076F00A
:100ED00073C060F074C061F075C062F076C063F0FA
:100EE000400E0001646F000E656F000E666F000E0D
:100EF000676F18EC06F000016005AF6E7251D8B450
:100F00001200D08EF28EF28C9E9A9F9A9D8A1200C9
:100F1000D60EF66E110EF76E000EF86E0900F5CFC4
:100F20008FF00900F5CF90F0D00EF66E110EF76E2F
:100F3000000EF86E00EE3BF010EE06F00900F5CF63
:100F4000EEFFE550E150FAE101EE00F0A60EEE6A88
:100F5000E806FDE100EE7CF0130EEE6AE806FDE126
:100F600000EE2EF00D0EEE6AE806FDE14190419292
:100F7000000EF86E0001EDEF07F03FC008F040C032
:100F800009F008500910D8A4000E0A6E83EC05F091
:100F90003BC008F03CC009F008500910D8A4000E6E
:100FA0000A6E83EC05F0280E086E080E096E0850D4
:100FB0000910D8A4000E0A6EA4C10BF00C6A83ECD1
:100FC00005F03DC008F03EC009F008500910D8A453
:100FD000000E0A6E83EC05F01200BCEC08F0E5ECA4
:100FE00006F06EEC08F0330E00016E6F080E6F6FA6
:100FF000250E716F800E706F010E726F37EC07F067
:10100000010EAAEC08F0050E00017B6F0F0E7A6F3F
:10101000F10EE82EFED77A2FFCD77B2FFAD7310EB0
:101020000001756F080E766F1A0E776F080E786FD5
:101030007FEC06F0FFD7000E0001666F000E656FB3
:1010400062516311D8B41CD0010E646F04D0D890E3
:1010500062376337642B63AFFAD7D890653766374A
:101060006251605D63516159D8A005D06251605FE3
:101070006351615B6581D89063336233642FEDD730
:1010800065C060F066C061F01200000E066E000ED2
:10109000056E03500410D8B41CD0010E076E04D0A6
:1010A000D89003360436072A04AEFAD7D89005360E
:1010B00006360350015C04500258D8A005D00350F6
:1010C000015E0450025A0580D89004320332072E84
:1010D000EDD705C001F006C002F01200000E0001BD
:1010E000676F000E666F67BF06D067511EE1050E81
:1010F000665DD8B0120066C060F067C061F0000E97
:10110000636F030E626F96EC08F0020E0001602719
:10111000000E61237C0E6025D96E000E6121DA6E0F
:10112000010EDF6E664B672BDED7120000016051A7
:101130006203F3CF64F0F4CF65F060516303F350C2
:10114000652761516203F350652764C060F065C094
:1011500061F012000001606F00016051D8B406D048
:10116000949E948CAC8AAB88AB8E1200949E949C17
:10117000AC9AAB98AB9E1200000E926E000E806E81
:10118000000E936E000E816E000E946E000E826E45
:101190000F0EC16E12000001616F00016151D2ECAF
:1011A00008F012000001606FACA2FED760C0ADFF76
:1011B0001200016EACA2FED701C0ADFF1200026E9C
:1011C0000250D9EC08F01200AB50AB50AE501200F8
:0811D00020082B082D0824085B
:020000040020DA
:08000000FFFFFFFFFFFFFFFF00
:020000040030CA
:0E000000040C1F1EFF8080FF0FC00FE00F409A
:00000001FF
