:040000006AEF00F0B3
:06000800448219ED09F02D
:100018004480D8CF28F0E8CF29F0E0CF2AF0FACFF3
:100028002BF0FBCF2CF0E9CF2DF0EACF2EF0E1CF6B
:100038002FF0E2CF30F0D9CF31F0DACF32F0F3CF72
:1000480033F0F4CF34F0F6CF35F0F7CF36F0F8CF01
:1000580037F0F5CF38F044C039F045C03AF046C023
:100068003BF047C03CF09EAA05D04BEC0BF01CECD3
:1000780004F09E9A3CC047F03BC046F03AC045F0B9
:1000880039C044F038C0F5FF37C0F8FF36C0F7FF75
:1000980035C0F6FF34C0F4FF33C0F3FF32C0DAFFD7
:1000A80031C0D9FF30C0E2FF2FC0E1FF2EC0EAFF08
:1000B8002DC0E9FF2CC0FBFF2BC0FAFF2AC0E0FFD0
:1000C80029C0E8FF28C0D8FF4490100017EF0AF0B5
:100800000001001000000100103031323334353661
:10081000373839616263646566005B415D005B4D3A
:100820005D00257800450049004C005000520055FD
:1008300000240026003A0000276EB5D0260E2718A7
:10084000D8A410D0000E01010A6F000E3D6F000EFB
:10085000706F000EA36F000E0001D66F010E010134
:10086000A56F1200000E0101A56F12003A0E2718A5
:10087000D8A40DD0020EA56F0A51010D000EF3246D
:10088000D96E010EF420DA6E000EDF6E12000A51EE
:10089000010D000EF324D96E010EF420DA6E27C08C
:1008A000DFFF0A2B0A0E0A651200000E0A6F120003
:1008B0003A0E2718D8A40DD0030EA56F3D51010D97
:1008C0000B0EF324D96E010EF420DA6E000EDF6EEB
:1008D00012003D51010D0B0EF324D96E010EF420D0
:1008E000DA6E27C0DFFF3D2B320E3D651200000E91
:1008F0003D6F12003A0E2718D8A40DD0040EA56F34
:100900007051010D3E0EF324D96E010EF420DA6E03
:10091000000EDF6E12007051010D3E0EF324D96EF1
:10092000010EF420DA6E27C0DFFF702B320E7065E7
:100930001200000E706F12003A0E2718D8A40DD0C6
:10094000050EA56FA351010D710EF324D96E010E92
:10095000F420DA6E000EDF6E1200A351010D710E4D
:10096000F324D96E010EF420DA6E27C0DFFFA32B2B
:10097000320EA3651200000EA36F1200240E27187A
:10098000D8A409D0E7EC09F0000E0101A56F010E13
:100990000001D66F12002750D00F0101A46F120082
:1009A000000EA56F12000101A551000AD8B446D768
:1009B000010AD8B45BD7030AD8B47AD7010AD8B4ED
:1009C00099D7070AD8B4B8D7010AD8B4D7D7E8D787
:1009D000050E0001F86F0F0EF76FF10EE82EFED72F
:1009E000F72FFCD7F82FFAD70BEC0BF02B0E0001EA
:1009F000E56F080EE66F250EE86F800EE76F010EBB
:100A0000E96FC4EC08F0010ED6EC0AF0E8EC0AF04D
:100A1000050E0001F86F0F0EF76FF10EE82EFED7EE
:100A2000F72FFCD7F82FFAD70001D651D8B47FD0D2
:100A3000000ED66FBFEC0AF020EEC4F0050EEBCF2F
:100A4000DBFFE806FCE2C6C0D7F0C7C0D8F0290E2D
:100A50000001D96F080EDA6F98EC0AF00001D75147
:100A6000D811D8A403D024EC0BF061D0C6C0D7F0C5
:100A7000C7C0D8F02F0E0001D96F080EDA6F98ECBE
:100A80000AF00001D751D811D8A403D02BEC0BF0F9
:100A90004ED0C6C0D7F0C7C0D8F0270E0001D96F1E
:100AA000080EDA6F98EC0AF00001D751D811D8A4DB
:100AB00009D0C8C0D9FFC9C0DAFFDF50D00FFAECA7
:100AC0000AF035D0C6C0D7F0C7C0D8F02D0E00014F
:100AD000D96F080EDA6F98EC0AF00001D751D811DF
:100AE000D8A40BD0680E0001F76FE40EE82EFED7F5
:100AF000F72FFCD700F0FF001AD0C6C0D7F0C7C050
:100B0000D8F02B0E0001D96F080EDA6F98EC0AF0BE
:100B10000001D751D811D8B40AD0250EE96F080EBC
:100B2000EA6F2F0EEB6F080EEC6F7FEC07F0000101
:100B3000D551D8B479D7000ED56F6AEC09F0EFEC37
:100B400007F072D7E10E0001E26F000EE36F8BD069
:100B5000250EE819D8B404D0E85132EC0BF083D05C
:100B6000000E0001E16F04D0E85132EC0BF07BD0B5
:100B7000DEC0F6FFDFC0F7FFE0C0F8FF010E0001A6
:100B8000DE27000EDF23E023F8BA03D00800F5507B
:100B900005D0F6CFE9FFF7CFEAFFEF500001E86F8D
:100BA000E851000AD8B41200780AD8A4DDD7E2C010
:100BB000D9FFE3C0DAFFDECFE5F0DDCFE6F0020ECD
:100BC0000001E227000EE323010EE86F14D0E85184
:100BD000020D010EF324F66E080EF420F76EF86A8B
:100BE000000EF8220900F550E55D0900F550E659C0
:100BF000D8A005D0E82B040EE819D8A4E8D7E8C09F
:100C0000E7F02CD0E5C0D7F0E6C0D8F0E751020DF0
:100C1000010EF324F66E080EF420F76EF86A000E4B
:100C2000F8220900F5CFD9F00A00F5CFDAF045EC4B
:100C30000AF00001D7510F0BE46FE451010D090ECA
:100C4000F324F66E080EF420F76EF86A000EF82210
:100C50000800F5CFE8F0E85132EC0BF00001E707AF
:100C6000E729D8A4CFD7DEC0F6FFDFC0F7FFE0C08A
:100C7000F8FF010E0001DE27000EDF23E023F8BAA3
:100C800003D00800F55005D0F6CFE9FFF7CFEAFF13
:100C9000EF500001E86FE851D8B4120059D71D0E8B
:100CA000206E000E216E85D0250E2618D8B404D0F3
:100CB000265046EC0BF07DD0000E1F6E04D026505F
:100CC00046EC0BF076D01AC0F6FF1BC0F7FF1CC035
:100CD000F8FF010E1A26000E1B221C22F8BA03D0C0
:100CE0000800F55005D0F6CFE9FFF7CFEAFFEF5047
:100CF000266E2650000AD8B41200780AD8A4DFD78E
:100D000020C0D9FF21C0DAFFDECF23F0DDCF24F0F1
:100D1000020E2026000E2122010E266E14D026502F
:100D2000020D010EF324F66E080EF420F76EF86A39
:100D3000000EF8220900F550235C0900F5502458F4
:100D4000D8A005D0262A040E2618D8A4E8D726C095
:100D500025F02BD023C013F024C014F02550020D31
:100D6000010EF324F66E080EF420F76EF86A000EFA
:100D7000F8220900F5CF15F00A00F5CF16F06FEC58
:100D80000AF013500F0B226E2250010D090EF324AE
:100D9000F66E080EF420F76EF86A000EF8220800CE
:100DA000F5CF26F0265046EC0BF025062528D8A4D2
:100DB000D1D71AC0F6FF1BC0F7FF1CC0F8FF010E09
:100DC0001A26000E1B221C22F8BA03D00800F55088
:100DD00005D0F6CFE9FFF7CFEAFFEF50266E265099
:100DE000D8B4120061D70001DA6F3F0E93163F0EA0
:100DF0009312DAC0D3F00001D46B000EDB6F71D018
:100E0000DB510A0D600EF324D96E000EF420DA6E69
:100E1000DBC0DFFFDB510A0D010EF326000EF422CA
:100E2000600EF324D96E000EF420DA6E010EDF6E30
:100E3000DB510A0D020EF326000EF422600EF3249D
:100E4000D96E000EF420DA6E810EDE6E0F0EDD6EAE
:100E5000DB510A0D040EF326000EF422600EF3247B
:100E6000D96E000EF420DA6E070EDF6EDB510A0D2C
:100E7000060EF326000EF422600EF324D96E000E47
:100E8000F420DA6E000EDF6EDB510A0D050EF3263C
:100E9000000EF422600EF324D96E000EF420DA6EF8
:100EA000000EDF6EDB510A0D070EF326000EF42252
:100EB000600EF324D96E000EF420DA6E810EDE6E21
:100EC0000F0EDD6EDB510A0D090EF326000EF42223
:100ED000600EF324D96E000EF420DA6EDBC0DFFF63
:100EE000DB2BDB51D76FD86BD351D75DD851800A3C
:100EF000D96FD451800AD959D8B0120081D741C0D6
:100F0000DEF042C0DFF00001DE51DF11D8A4000E98
:100F1000E06FA2EC05F0F9C0DEF0FAC0DFF00001EE
:100F2000DE51DF11D8A4000EE06FA2EC05F0D0C0B6
:100F3000DEF0D1C0DFF0D2C0E0F0A2EC05F0350E5B
:100F40000001DE6F080EDF6FDE51DF11D8A4000E46
:100F5000E06FA2EC05F0E9C0DEF0EAC0DFF00001CE
:100F6000E06BDE51DF11D8B405D0070EEA6501D081
:100F700001D0E08BA2EC05F0350E0001DE6F080E0B
:100F8000DF6FDE51DF11D8A4000EE06FA2EC05F098
:100F9000EBC0DEF0ECC0DFF00001E06BDE51DF11F2
:100FA000D8B405D0070EEC6501D001D0E08BA2ECDF
:100FB00005F03FC0DEF040C0DFF00001DE51DF1180
:100FC000D8A4000EE06FA2EC05F0060E0001ED6F54
:100FD000300EE82EFED7ED2FFCD700F01200000EE9
:100FE0000001F66F5CD0F6510A0D060EF326000ED6
:100FF000F422600EF324D96E000EF420DA6EF6515E
:101000000A0D050EF326000EF422600EF324E16EA5
:10101000000EF420E26EDE50E618D8B43FD0F65150
:101020000A0D600EF324D96E000EF420DA6E00EE85
:10103000D7F0090EDBCFEBFFE806FCE2F10EE16F23
:10104000000EE26FF40EE36F000EE46FB7EC09F0F0
:10105000F10E0001E96F000EEA6FF40EEB6F000E67
:10106000EC6F7FEC07F00001F6510A0D060EF32637
:10107000000EF422600EF324D96E000EF420DA6E16
:10108000F6510A0D050EF326000EF422600EF3242D
:10109000E16E000EF420E26EDFCFE7FFF62BF65193
:1010A000EE6FEF6BD351EE5DEF51800AF06FD451CC
:1010B000800AF059D8B0120096D7000E0001E06FF8
:1010C000DEAF0AD0DE1FDD1FDC1FDB6D000EDC2370
:1010D000DD23DE23010EE06FDAAF0AD0DA1FD91F5D
:1010E000D81FD76D000ED823D923DA23010EE01BB9
:1010F000000EE16F000EE26F000EE36F000EE46F72
:10110000DB51DC11DD11DE11D8B42AD0010EDF6F06
:1011100006D0D890DB37DC37DD37DE37DF2BDEAFAC
:10112000F8D7D890E137E237E337E437DB51D75DC2
:10113000DC51D859DD51D959DE51DA59D8A009D03E
:10114000DB51D75FDC51D85BDD51D95BDE51DA5B17
:10115000E181D890DE33DD33DC33DB33DF2FE1D7C1
:10116000E051D8B408D0E41FE31FE21FE16D000E88
:10117000E223E323E423E1C0D7F0E2C0D8F0E3C0E8
:10118000D9F0E4C0DAF01200949E948CE5C0D0F05F
:10119000E6C0D1F00001D051D111D8A4000ED26F19
:1011A000000ED66F000ED6EC0AF0AC9CAC98AC9456
:1011B000AB9CB89AB898B896AB94AB92000EAE6E52
:1011C000E7C0DBF0E8C0DCF00001DD6BDE6B000E99
:1011D000D76F240ED86FF40ED96F000EDA6F5DEC66
:1011E00008F0D7C0EAF0D8C0EBF0D9C0ECF0DAC014
:1011F000EDF0EAC0D7F0EBC0D8F0ECC0D9F0EDC00C
:10120000DAF0400E0001DB6F000EDC6F000EDD6FC8
:10121000000EDE6F5DEC08F00001D705AF6EE951FE
:10122000D8B41200D08EF28EF28C9E9A9F9A9D8A2C
:1012300012000600FACF01F0FBCF02F0E9CF03F075
:10124000EACF04F0E1CF05F0E2CF06F0D9CF07F006
:10125000DACF08F0F3CF09F0F4CF0AF0F6CF0BF0B5
:10126000F7CF0CF0F8CF0DF0F5CF0EF044C00FF033
:1012700045C010F046C011F047C012F0F2A404D0EF
:10128000010E0001D56FF29412C047F011C046F074
:1012900010C045F00FC044F00EC0F5FF0DC0F8FFC0
:1012A0000CC0F7FF0BC0F6FF0AC0F4FF09C0F3FF44
:1012B00008C0DAFF07C0D9FF06C0E2FF05C0E1FFA2
:1012C00004C0EAFF03C0E9FF02C0FBFF01C0FAFF50
:1012D00044921100000E0001DB6F3BD0DB510A0D80
:1012E000060EF326000EF422600EF324D96E000ED3
:1012F000F420DA6EDB510A0D090EF326000EF422FB
:10130000600EF324E16E000EF420E26EE750D76F1A
:10131000DB510A0D070EF326000EF422600EF324B3
:10132000E16E000EF420E26EE6CFD8F0E5CFD9F002
:10133000D8C0E1FFD9C0E2FFE750DA6FD72B02D067
:10134000D890DA33D72FFCD70001DA51010BDF6ECA
:10135000DB2BDB51D76FD86BD351D75DD851800AC7
:10136000D96FD451800AD959D8B01200B7D7E1C08B
:10137000D9FFE2C0DAFF440EDF6E000120EE01F07B
:10138000E151D926E251DA22D751300FDF6E20EE3B
:1013900002F0E151D926E251DA22000EDF6EDD5172
:1013A000D8B406D0E3C0D9FFE4C0DAFF430E05D0BD
:1013B000E3C0D9FFE4C0DAFF4F0EDF6E20EE01F08C
:1013C000E351D926E451DA22000EDF6E120041C04B
:1013D0001AF042C01BF01A501B10D8A4000E1C6E4D
:1013E0004FEC06F03DC01AF03EC01BF01A501B1027
:1013F000D8A4000E1C6E4FEC06F0220E1A6E080EDA
:101400001B6E1A501B10D8A4000E1C6EA4C11DF038
:101410001E6A4FEC06F03FC01AF040C01BF01A5095
:101420001B10D8A4000E1C6E4FEC06F01200A40E88
:10143000F66E160EF76E000EF86E0900F5CFF9F095
:101440000900F5CFFAF09E0EF66E160EF76E000E3E
:10145000F86E00EE3DF010EE06F00900F5CFEEFF5D
:10146000E550E150FAE101EE00F0A60EEE6AE80662
:10147000FDE100EE60F0770EEE6AE806FDE1436AFA
:10148000449044920001E8EF04F0000E0001DC6F8C
:10149000000EDB6FD951DA11D8B41CD0010EDD6F0C
:1014A00004D0D890D937DA37DD2BDAAFFAD7D89015
:1014B000DB37DC37D951D75DDA51D859D8A005D000
:1014C000D951D75FDA51D85BDB81D890DA33D93381
:1014D000DD2FEDD7DBC0D7F0DCC0D8F01200000E56
:1014E000186E000E176E15501610D8B41CD0010ED1
:1014F000196E04D0D89015361636192A16AEFAD7BA
:10150000D890173618361550135C16501458D8A0BA
:1015100005D01550135E1650145A1780D890163205
:101520001532192EEDD717C013F018C014F01200A1
:1015300005D00001D74BD82BD94BDA2BD7C0D9FF18
:10154000D8C0DAFFDF500001DB6FD9C0F6FFDAC088
:10155000F7FFF86A0800F5500008DB25DC6FDC5166
:10156000D8A407D0D7C0D9FFD8C0DAFFDF50D8A49D
:10157000E0D7DC51D76FD86BD7BFD80712000B0E5E
:101580000001CA6F010ECB6F3E0ECC6F010ECD6F06
:10159000710ECE6F010ECF6F20EECAF000EED7F0C5
:1015A000050EDBCFEBFFE806FCE212000001D76F6F
:1015B0000001D751D8B406D0949E948CAC8AAB88E5
:1015C000AB8E1200949E949CAC9AAB98AB9E12008A
:1015D000000E1AEC0BF0D59CD59AD598D596D5501F
:1015E000F80B0209D56ED08EF28EF28CF294F18453
:1015F000F28A12000001DC6F0001DC51D8A402D095
:10160000010EDC6FDC51F3EC06F024EC0BF0010E64
:101610001AEC0BF01200000E926E000E806E000E9F
:10162000936E000E816E000E946E000E826E0F0E91
:10163000C16E12000001D76F0001D751D8B402D09B
:10164000D58E1200D59E120062C0D9FF63C0DAFFAA
:10165000C00EDF12120062C0D9FF63C0DAFF3F0E76
:10166000DF1612000001D86F0001D85139EC0BF0E1
:1016700012000001D76FACA2FED7D7C0ADFF120099
:10168000136EACA2FED713C0ADFF1200146E14503F
:1016900040EC0BF01200AB50AB50AE5012001A08E9
:0616A000310833081E08AA
:020000040020DA
:08000000FFFFFFFFFFFFFFFF00
:020000040030CA
:0E000000040C1F1EFF8080FF0FC00FE00F409A
:00000001FF
