:0400000076EF00F0A7
:0600080044822FED09F017
:100018004480D8CF14F0E8CF15F0E0CF16F0FACF2F
:1000280017F0FBCF18F0E9CF19F0EACF1AF0E1CFBB
:100038001BF0E2CF1CF0D9CF1DF0DACF1EF0F3CFC2
:100048001FF0F4CF20F0F6CF21F0F7CF22F0F8CF51
:1000580023F0F5CF24F044C025F045C026F046C073
:1000680027F047C028F0F2A403D0F294010E3E6EA8
:100078009EA00CD05E0ECF6E000ECE6E630E416059
:1000880002D0412A02D0010E3D6E9E9028C047F052
:1000980027C046F026C045F025C044F024C0F5FF2F
:1000A80023C0F8FF22C0F7FF21C0F6FF20C0F4FFED
:1000B8001FC0F3FF1EC0DAFF1DC0D9FF1CC0E2FF3E
:1000C8001BC0E1FF1AC0EAFF19C0E9FF18C0FBFF17
:1000D80017C0FAFF16C0E0FF15C0E8FF14C0D8FF2C
:0800E80044901000EBEF0BF057
:100800000001000A006400E8031027010010000046
:100810000100103031323334353637383961626394
:10082000646566005B415D005B4D5D0025640025ED
:1008300078004100450049004C0050005200530030
:090840005500240026003A0000D6
:10084A00D60E0001DA6F000EDB6F0AD1250EE01911
:10085A00D8B404D0E0518AEC0CF002D1000E0001A9
:10086A00DD6F06D0DD8F2AD0E0518AEC0CF0F8D08B
:10087A00D3C0F6FFD4C0F7FFD5C0F8FF010E0001C0
:10088A00D327000ED423D523F8BA03D00800F55095
:10089A0005D0F6CFE9FFF7CFEAFFEF500001E06F8E
:1008AA00E051000AD8B41200640AD8B407D00D0A7D
:1008BA00D8B404D0110AD8B4D5D7D6D70001DDBF31
:1008CA0015D0DAC0D9FFDBC0DAFFDECFDEF0DDCF2C
:1008DA00DFF0020EDA27000EDB23DFAF4AD0030E69
:1008EA00DD13DE6DDF1FD8B0DF2B43D0DAC0D9FFAE
:1008FA00DBC0DAFFDECFDEF0DDCFDFF0020EDA2773
:10090A00000EDB2336D0010EE06F050EE019D8B4D5
:10091A0038D0E051020D010EF324F66E080EF420D1
:10092A00F76EF86A000EF8220900F550DE5D09003C
:10093A00F550DF59D8A025D0E02BE7D7010EE06F9C
:10094A00040EE019D8B41DD0E051020D0B0EF324A9
:10095A00F66E080EF420F76EF86A000EF822090007
:10096A00F550DE5D0900F550DF59D8A00AD0E02B1A
:10097A00E7D7DD51800B000AD8B4C5D7800AD8B4AE
:10098A00DDD7DDC0D8F0030ED817D8B403D02D0EAA
:10099A008AEC0CF0E0C0DCF05ED00001DC51020D04
:1009AA00010EF324F66E080EF420F76EF86A000EB4
:1009BA00F8220900F5CFC9F00A00F5CFCAF0DEC067
:1009CA00C7F0DFC0C8F0C1EC0BF0C7C0CEF0C8C09A
:1009DA00CFF0000E0001D16F0A0ED06F39EC0CF087
:1009EA000001CE51300FE06F33D0DEC0C7F0DFC058
:1009FA00C8F0DC51020D0B0EF324F66E080EF4203B
:100A0A00F76EF86A000EF8220900F5CFC9F00A005D
:100A1A00F5CFCAF0C1EC0BF00001C7510F0BD96F2B
:100A2A00D951010D130EF324F66E080EF420F76E59
:100A3A00F86A000EF8220800F5CFE0F009D00001AC
:100A4A00DD51800B000AD8B4A8D7800AD8B4CDD714
:100A5A00E0518AEC0CF00001DC07DC29D8A4EFD7BE
:100A6A00D3C0F6FFD4C0F7FFD5C0F8FF010E0001CE
:100A7A00D327000ED423D523F8BA03D00800F550A3
:100A8A0005D0F6CFE9FFF7CFEAFFEF500001E06F9C
:100A9A00E051D8B41200DAD63D50D8B409D0000ECD
:100AAA0001EC0DF0000E416EE4EC09F0000E3D6E13
:100ABA004250D8B4B8D0000E426E5BEC0CF020EE77
:100ACA0029F0060EEBCFDBFFE806FCE22F505BECC9
:100ADA000BF0000E406E030E3918D8A402D0000E97
:100AEA003A6E2BC0C7F02CC0C8F0380E0001C96F8F
:100AFA00080ECA6F12EC0CF00001C751C811D8A435
:100B0A0006D0000E416E010E01EC0DF08CD02BC008
:100B1A00C7F02CC0C8F0400E0001C96F080ECA6F9A
:100B2A0012EC0CF00001C751C811D8A408D0000E6D
:100B3A00416E000E01EC0DF08AEC09F074D02BC066
:100B4A00C7F02CC0C8F0360E0001C96F080ECA6F74
:100B5A0012EC0CF00001C751C811D8A40BD02DC05B
:100B6A00D9FF2EC0DAFFDF50D00FC2EC0CF0010E15
:100B7A003C6E59D02BC0C7F02CC0C8F03C0E000107
:100B8A00C96F080ECA6F12EC0CF00001C751C811E8
:100B9A00D8A40BD0680E0001EF6FE40EE82EFED742
:100BAA00EF2FFCD700F0FF003ED02BC0C7F02CC0BF
:100BBA00C8F03A0E0001C96F080ECA6F12EC0CF0A9
:100BCA000001C751C811D8A40AD03E0EE16F080E21
:100BDA00E26F3CC0E3F0E46BC5EC08F024D02BC014
:100BEA00C7F02CC0C8F0320E0001C96F080ECA6FD8
:100BFA0012EC0CF00001C751C811D8A409D02DC0BD
:100C0A00D9FF2EC0DAFFDF50D00F15EC0DF00BD054
:100C1A00340E0001E16F080EE26F400EE36F080E1A
:100C2A00E46F55EC08F03E50D8B436D7000E3E6E4D
:100C3A00020E3F6002D03F2A11D081BA04D00001CF
:100C4A00EF6BEF2B02D00001EF6BEF3BEF478150C8
:100C5A00EF19DF0BEF19816E000E3F6E3DEC0AF0C3
:100C6A00DEEC07F03C0E406002D0402A05D0395035
:100C7A00D8A402D0030E3A6E39503A18D8A417D025
:100C8A003A04D8B414D0030E3A18D8B410D004D702
:100C9A00000E0BD03B50D8A402D0010E3B6E3B5045
:100CAA00020DF3CF3BF011D07F0E3B6E0ED03A50BF
:100CBA00000AD8B4EDD7010AD8B4ECD7030AD8B4DD
:100CCA00F3D7010AD8B4E6D7E3D73B5073EC0CF05C
:100CDA003AC039F0E1D6016EAED0260E0118D8A47A
:100CEA000ED0000E01010A6F000E3D6F000E706FEC
:100CFA00000EA36F000E426E010EA56F1200000EC9
:100D0A000101A56F12003A0E0118D8A40DD0020EE7
:100D1A00A56F0A51010D000EF324D96E010EF420BD
:100D2A00DA6E000EDF6E12000A51010D000EF32476
:100D3A00D96E010EF420DA6E01C0DFFF0A2B0A0E0B
:100D4A000A651200000E0A6F12003A0E0118D8A4A2
:100D5A000DD0030EA56F3D51010D0B0EF324D96E74
:100D6A00010EF420DA6E000EDF6E12003D51010D05
:100D7A000B0EF324D96E010EF420DA6E01C0DFFFE8
:100D8A003D2B320E3D651200000E3D6F12003A0EE9
:100D9A000118D8A40DD0040EA56F7051010D3E0E96
:100DAA00F324D96E010EF420DA6E000EDF6E120003
:100DBA007051010D3E0EF324D96E010EF420DA6E45
:100DCA0001C0DFFF702B320E70651200000E706FCB
:100DDA0012003A0E0118D8A40DD0050EA56FA35122
:100DEA00010D710EF324D96E010EF420DA6E000E95
:100DFA00DF6E1200A351010D710EF324D96E010E9C
:100E0A00F420DA6E01C0DFFFA32B320EA3651200B5
:100E1A00000EA36F1200240E0118D8A405D0000EEC
:100E2A00A56F010E426E12000150D00FA46F12007E
:100E3A00000EA56F12000101A551000AD8B44DD7C2
:100E4A00010AD8B460D7030AD8B47FD7010AD8B444
:100E5A009ED7070AD8B4BDD7010AD8B4DCD7E8D7D9
:100E6A000001CA6FCAC037F0386A000E0001CB6FA2
:100E7A0092D0CB510A0D600EF324D96E000EF420E5
:100E8A00DA6ECBC0DFFFCB510A0D010EF326000E3E
:100E9A00F422600EF324D96E000EF420DA6E010EED
:100EAA00DF6ECB510A0D020EF326000EF422600EFD
:100EBA00F324D96E000EF420DA6E810EDE6E0F0E68
:100ECA00DD6ECB510A0D040EF326000EF422600EDD
:100EDA00F324D96E000EF420DA6ECBC0DFFFCB51BB
:100EEA000A0D060EF326000EF422600EF324D96EC4
:100EFA00000EF420DA6E000EDF6ECB510A0D050EDD
:100F0A00F326000EF422600EF324D96E000EF420AC
:100F1A00DA6E010EDF6ECB510A0D070EF326000EB4
:100F2A00F422600EF324D96E000EF420DA6E800EDD
:100F3A00DE6E0F0EDD6ECB510A0D090EF326000E82
:100F4A00F422600EF324D96E000EF420DA6ECB2957
:100F5A00DF6ECBC0C7F0010EC86FC72B02D0D89086
:100F6A00C837C72FFCD70001C8519314931A92505F
:100F7A00FF0AC76FCBC0C8F0010EC827010EC96FA0
:100F8A00C82B02D0D890C937C82FFCD70001C95145
:100F9A00C715921ACB2BCB51C76FC86B3750C75D99
:100FAA00C851800AC96F3850800AC959D8B012008E
:100FBA0060D7000E0001EE6F65D0EE510A0D060EE5
:100FCA00F326000EF422600EF324D96E000EF420EC
:100FDA00DA6EEE510A0D050EF326000EF422600EAB
:100FEA00F324E16E000EF420E26EDE50E618D8B467
:100FFA0048D0EE510A0D600EF324D96E000EF4208B
:10100A00DA6E00EEC7F0090EDBCFEBFFE806FCE272
:10101A00E90ED16F000ED26FEC0ED36F000ED46FB3
:10102A0091EC0BF0E90E0001E16F000EE26FEC0E9D
:10103A00E36F000EE46F55EC08F0060E0001E66F50
:10104A00300EE82EFED7E62FFCD700F00001EE5155
:10105A000A0D060EF326000EF422600EF324D96E52
:10106A00000EF420DA6EEE510A0D050EF326000E7C
:10107A00F422600EF324E16E000EF420E26EDFCF5C
:10108A00E7FFEE2BEE51E66FE76B3750E65DE7516F
:10109A00800AE86F3850800AE859D8B012008DD714
:1010AA00F8C0D3F0F9C0D4F00001D351D411D8A4B8
:1010BA00000ED56F25EC04F0F4C0D3F0F5C0D4F0DF
:1010CA000001D351D411D8A4000ED56F25EC04F039
:1010DA00C4C0D3F0C5C0D4F0C6C0D5F025EC04F026
:1010EA00460E0001D36F080ED46FD351D411D8A481
:1010FA00000ED56F25EC04F0E1C0D3F0E2C0D4F0C5
:10110A000001D56BD351D411D8B405D0070EE265CE
:10111A0001D001D0D58B25EC04F0460E0001D36F27
:10112A00080ED46FD351D411D8A4000ED56F25EC74
:10113A0004F0E3C0D3F0E4C0D4F00001D56BD3517E
:10114A00D411D8B405D0070EE46501D001D0D58BEF
:10115A0025EC04F0F6C0D3F0F7C0D4F00001D35167
:10116A00D411D8A4000ED56F25EC04F0060E0001A8
:10117A00E56F300EE82EFED7E52FFCD700F01200FF
:10118A00F8C0D3F0F9C0D4F00001D351D411D8A4D7
:10119A00000ED56F25EC04F0F4C0D3F0F5C0D4F0FE
:1011AA000001D351D411D8A4000ED56F25EC04F058
:1011BA00C4C0D3F0C5C0D4F0C6C0D5F025EC04F045
:1011CA00460E0001D36F080ED46FD351D411D8A4A0
:1011DA00000ED56F25EC04F0E1C0D3F0E2C0D4F0E4
:1011EA000001D351D411D8A4000ED56F25EC04F018
:1011FA00460E0001D36F080ED46FD351D411D8A470
:10120A00000ED56F25EC04F02C0E0001D36F080EEA
:10121A00D46FD351D411D8A4000ED56FE3C0D6F041
:10122A00E4C0D7F025EC04F0F6C0D3F0F7C0D4F050
:10123A000001D351D411D8A4000ED56F25EC04F0C7
:10124A00060E0001E56F300EE82EFED7E52FFCD71B
:10125A0000F012000600FACF02F0FBCF03F0E9CF4C
:10126A0004F0EACF05F0E1CF06F0E2CF07F0D9CFDC
:10127A0008F0DACF09F0F3CF0AF0F4CF0BF0F6CF8B
:10128A000CF0F7CF0DF0F8CF0EF0F5CF0FF044C009
:10129A0010F045C011F046C012F047C013F09EAAE4
:1012AA000ED09E9AABA403D0000EAE6E08D0ABA2AD
:1012BA0003D0AB98AB8803D0AE5070EC06F013C0E5
:1012CA0047F012C046F011C045F010C044F00FC0FC
:1012DA00F5FF0EC0F8FF0DC0F7FF0CC0F6FF0BC0FC
:1012EA00F4FF0AC0F3FF09C0DAFF08C0D9FF07C03C
:1012FA00E2FF06C0E1FF05C0EAFF04C0E9FF03C040
:10130A00FBFF02C0FAFF44921100000E0001CF6FEA
:10131A0048D0CF510A0D020EF326000EF422600EB9
:10132A00F324D96E000EF420DA6EDECFC7F0DDCFDB
:10133A00C8F0C7C0D9FFC8C0DAFFDF50FF0AC96FBB
:10134A00CF510A0D040EF326000EF422600EF32488
:10135A00D96E000EF420DA6EDF50CA6F010ECB6F21
:10136A00CA2B02D0D890CB37CA2FFCD70001CB5159
:10137A00C915CC6FCF510A0D020EF326000EF422C6
:10138A00600EF324D96E000EF420DA6EDECFCDF0B3
:10139A00DDCFCEF0CDC0D9FFCEC0DAFFCC51DF1AF7
:1013AA00CF2BCF51C76FC86B3750C75DC851800A62
:1013BA00C96F3850800AC959D8B01200AAD7000E8E
:1013CA000001CF6F47D0CF510A0D020EF326000E4F
:1013DA00F422600EF324D96E000EF420DA6EDECF0A
:1013EA00C7F0DDCFC8F0C7C0D9FFC8C0DAFFDF50E9
:1013FA00C96FCF510A0D040EF326000EF422600EB7
:10140A00F324D96E000EF420DA6EDF50CA6F010E93
:10141A00CB6FCA2B02D0D890CB37CA2FFCD700018A
:10142A00CB51C915CC6FCF510A0D020EF326000E0F
:10143A00F422600EF324D96E000EF420DA6EDECFA9
:10144A00CDF0DDCFCEF0CDC0D9FFCEC0DAFFCC5182
:10145A00DF1ACF2BCF51C76FC86B3750C75DC85142
:10146A00800AC96F3850800AC959D8B01200ABD760
:10147A00000E0001CB6F3ED0CB510A0D060EF326AB
:10148A00000EF422600EF324D96E000EF420DA6EF8
:10149A00CB510A0D090EF326000EF422600EF32436
:1014AA00E16E000EF420E26EE750C76FCB510A0DD1
:1014BA00070EF326000EF422600EF324E16E000EEE
:1014CA00F420E26EE6CFC8F0E5CFC9F0C8C0E1FF6C
:1014DA00C9C0E2FFE750CA6FC72B02D0D890CA33FF
:1014EA00C72FFCD70001CAB102D0010E01D0000EED
:1014FA00DF6ECB2BCB51C76FC86B3750C75DC85156
:10150A00800AC96F3850800AC959D8B01200B4D7B6
:10151A00050E0001F16F0F0EF06FF10EE82EFED7E7
:10152A00F02FFCD7F12FFAD7F2EC0CF03A0E0001AB
:10153A00D46F080ED56F250ED76F800ED66F010EA9
:10154A00D86F1AEC0BF0010E9EEC0CF0B0EC0CF01C
:10155A00D3EC0CF0E3EC0CF0050E0001F16F0F0E6A
:10156A00F06FF10EE82EFED7F02FFCD7F12FFAD745
:10157A00000E3A6E000E396E000E3D6E000E3E6E83
:10158A00000E3C6E050E0001F16F0F0EF06FF10EAA
:10159A00E82EFED7F02FFCD7F12FFAD7816851EC4D
:1015AA0005F076EF00F0000E0001CF6F000ED06F4D
:1015BA00000ED16F000ED26FCB51CC11CD11CE11CE
:1015CA00D8B42AD0010ED36F06D0D890CB37CC37F7
:1015DA00CD37CE37D32BCEAFF8D7D890CF37D03739
:1015EA00D137D237CB51C75DCC51C859CD51C95922
:1015FA00CE51CA59D8A009D0CB51C75FCC51C85BCC
:10160A00CD51C95BCE51CA5BCF81D890CE33CD3391
:10161A00CC33CB33D32FE1D7CFC0C7F0D0C0C8F07B
:10162A00D1C0C9F0D2C0CAF01200D4C0C4F0D5C02B
:10163A00C5F00001C451C511D8A4000EC66F000E32
:10164A00426E000E9EEC0CF0AB94AB92000EAE6EA6
:10165A00AC9CAC98AC94AB9CB88AB888B896000E8F
:10166A000001C76F240EC86FF40EC96F000ECA6F4F
:10167A00D6C0CBF0D7C0CCF0CD6BCE6BD8EC0AF08D
:10168A00070E06D00001D890CA33C933C833C7330E
:10169A00E82EF8D7C705AF6ED851D8B41200D08E4D
:1016AA00F28EF28C9E9A9F8A9D8A12000001E16F47
:1016BA00F8C0D3F0F9C0D4F00001D351D411D8A4A2
:1016CA00000ED56F25EC04F0F2C0D3F0F3C0D4F0CD
:1016DA000001D351D411D8A4000ED56F25EC04F023
:1016EA002F0E0001D36F080ED46FD351D411D8A492
:1016FA00000ED56FE1C0D6F0D76B25EC04F0F6C02A
:10170A00D3F0F7C0D4F00001D351D411D8A4000EFD
:10171A00D56F25EC04F01200D1C0D9FFD2C0DAFF90
:10172A00440EDF6E000120EE01F0D151D926D251CC
:10173A00DA22C751300FDF6E20EE02F0D151D926DE
:10174A00D251DA22000EDF6ECD51D8B406D0D3C002
:10175A00D9FFD4C0DAFF430E05D0D3C0D9FFD4C015
:10176A00DAFF4F0EDF6E20EE01F0D351D926D451A5
:10177A00DA22000EDF6E1200000E0001CD6F000E9D
:10178A00CC6FC951CA11D8B41CD0010ECB6F04D08A
:10179A00D890C937CA37CB2BCAAFFAD7D890CC372B
:1017AA00CD37C951C75DCA51C859D8A005D0C9514A
:1017BA00C75FCA51C85BCC81D890CA33C933CB2F13
:1017CA00EDD7CCC0C7F0CDC0C8F01200340EF66E0B
:1017DA001A0EF76E000EF86E00EEF2F010EE08F038
:1017EA000900F5CFEEFFE550E150FAE101EE00F015
:1017FA00A60EEE6AE806FDE100EE60F0670EEE6AFC
:10180A00E806FDE100EE29F01B0EEE6AE806FDE1AE
:10181A004490449200018DEF0AF005D00001C74BB5
:10182A00C82BC94BCA2BC7C0D9FFC8C0DAFFDF50C3
:10183A000001CB6FC9C0F6FFCAC0F7FFF86A0800FB
:10184A00F5500008CB25CC6FCC51D8A407D0C7C01F
:10185A00D9FFC8C0DAFFDF50D8A4E0D7CC51C76F90
:10186A00C86BC7BFC80712000001D051D111D8B444
:10187A0018D0010ED26F04D0D890D037D137D22BDE
:10188A00D1AFFAD7D051CE5DD151CF59D8A004D01B
:10189A00D051CE5FD151CF5BD890D133D033D22F34
:1018AA00F1D7CEC0CEF0CFC0CFF012000B0E306E03
:1018BA00010E316E3E0E326E010E336E710E346EB3
:1018CA00010E356EA4C136F020EE30F000EEC7F0FE
:1018DA00060EDBCFEBFFE806FCE212000001C76F41
:1018EA000001C751D8B40AD0CAB405D0BD50F00B14
:1018FA000C09BD6ECA84C7C0BEFF1200BD90BD925E
:10190A00BD94BD96CA94829412000001C76F000E5E
:10191A000001C86F05D0C82B060EE82EFED700D0EE
:10192A00ACB204D0C70E0001C865F5D7C7C0ADFF79
:10193A0012000001C76F0001C751D8B406D0949EA7
:10194A00948CAC8AAB88AB8E1200949E949CAC9A11
:10195A00AB98AB9E1200000E0BEC0DF0D59CD59AFD
:10196A00D598D596D550F80B0209D56ED08EF28E41
:10197A00F28CF294F194F28A12000001D06F000105
:10198A00D051D8A402D0010ED06FD05135EC07F057
:10199A00E4EC09F0010E0BEC0DF01200000E01EC64
:1019AA000DF0CD8ECD9CCF0ECD16CD96CD92D08E8C
:1019BA00F28EF28C9E909F909D801200CB68CA9402
:1019CA00CA50FC0B0109CA6ECA96CA98CA9ACA9C1E
:1019DA001F0EBE6ECF0EBD161200000E926E000EC6
:1019EA00806E000E936E000E816E000E946E000ED5
:1019FA00826E0F0EC16E12000001C76F0001C7513F
:101A0A00D8B402D0CD801200CD9012000001C76F69
:101A1A000001C751D8B402D0D58E1200D59E12004B
:101A2A000001C76FC7C03AF012002408280842080C
:021A3A0044085E
:020000040020DA
:08000000FFFFFFFFFFFFFFFF00
:020000040030CA
:0E000000040C1F1EFF8080FF0FC00FE00F409A
:00000001FF
