:040000006AEF00F0B3
:060008004482E0ED08F067
:100018004480D8CF28F0E8CF29F0E0CF2AF0FACFF3
:100028002BF0FBCF2CF0E9CF2DF0EACF2EF0E1CF6B
:100038002FF0E2CF30F0D9CF31F0DACF32F0F3CF72
:1000480033F0F4CF34F0F6CF35F0F7CF36F0F8CF01
:1000580037F0F5CF38F044C039F045C03AF046C023
:100068003BF047C03CF09EAA05D0EFEC0AF01CEC30
:1000780004F09E9A3CC047F03BC046F03AC045F0B9
:1000880039C044F038C0F5FF37C0F8FF36C0F7FF75
:1000980035C0F6FF34C0F4FF33C0F3FF32C0DAFFD7
:1000A80031C0D9FF30C0E2FF2FC0E1FF2EC0EAFF08
:1000B8002DC0E9FF2CC0FBFF2BC0FAFF2AC0E0FFD0
:1000C80029C0E8FF28C0D8FF44901000A4EF09F029
:100800000001001000000100103031323334353661
:10081000373839616263646566005B415D005B4D3A
:100820005D00257800450049004C005000520055FD
:1008300000240026003A0000276EB5D0260E2718A7
:10084000D8A410D0000E01010A6F000E3D6F000EFB
:10085000706F000EA36F000E00019F6F010E01016B
:10086000A56F1200000E0101A56F12003A0E2718A5
:10087000D8A40DD0020EA56F0A51010D000EF3246D
:10088000D96E010EF420DA6E000EDF6E12000A51EE
:10089000010D000EF324D96E010EF420DA6E27C08C
:1008A000DFFF0A2B0A0E0A651200000E0A6F120003
:1008B0003A0E2718D8A40DD0030EA56F3D51010D97
:1008C0000B0EF324D96E010EF420DA6E000EDF6EEB
:1008D00012003D51010D0B0EF324D96E010EF420D0
:1008E000DA6E27C0DFFF3D2B320E3D651200000E91
:1008F0003D6F12003A0E2718D8A40DD0040EA56F34
:100900007051010D3E0EF324D96E010EF420DA6E03
:10091000000EDF6E12007051010D3E0EF324D96EF1
:10092000010EF420DA6E27C0DFFF702B320E7065E7
:100930001200000E706F12003A0E2718D8A40DD0C6
:10094000050EA56FA351010D710EF324D96E010E92
:10095000F420DA6E000EDF6E1200A351010D710E4D
:10096000F324D96E010EF420DA6E27C0DFFFA32B2B
:10097000320EA3651200000EA36F1200240E27187A
:10098000D8A409D074EC09F0000E0101A56F010E86
:1009900000019F6F12002750D00F0101A46F1200B9
:1009A000000EA56F12000101A551000AD8B446D768
:1009B000010AD8B45BD7030AD8B47AD7010AD8B4ED
:1009C00099D7070AD8B4B8D7010AD8B4D7D7E8D787
:1009D000AA0E0001AB6F000EAC6F8BD0250EB119C3
:1009E000D8B404D0B151CFEC0AF083D0000E00018E
:1009F000AA6F04D0B151CFEC0AF07BD0A7C0F6FFAC
:100A0000A8C0F7FFA9C0F8FF010E0001A727000E3C
:100A1000A823A923F8BA03D00800F55005D0F6CFD3
:100A2000E9FFF7CFEAFFEF500001B16FB151000AC3
:100A3000D8B41200780AD8A4DDD7ABC0D9FFACC0B7
:100A4000DAFFDECFAEF0DDCFAFF0020E0001AB2754
:100A5000000EAC23010EB16F14D0B151020D010E86
:100A6000F324F66E080EF420F76EF86A000EF822F2
:100A70000900F550AE5D0900F550AF59D8A005D07A
:100A8000B12B040EB119D8A4E8D7B1C0B0F02CD066
:100A9000AEC0A0F0AFC0A1F0B051020D010EF32422
:100AA000F66E080EF420F76EF86A000EF8220900C0
:100AB000F5CFA2F00A00F5CFA3F0D2EC09F00001C7
:100AC000A0510F0BAD6FAD51010D090EF324F66E61
:100AD000080EF420F76EF86A000EF8220800F5CF31
:100AE000B1F0B151CFEC0AF00001B007B029D8A4A1
:100AF000CFD7A7C0F6FFA8C0F7FFA9C0F8FF010E27
:100B00000001A727000EA823A923F8BA03D00800E4
:100B1000F55005D0F6CFE9FFF7CFEAFFEF5000011F
:100B2000B16FB151D8B4120059D71D0E206E000E0E
:100B3000216E85D0250E2618D8B404D02650EAECB4
:100B40000AF07DD0000E1F6E04D02650EAEC0AF0A9
:100B500076D01AC0F6FF1BC0F7FF1CC0F8FF010ECD
:100B60001A26000E1B221C22F8BA03D00800F550EA
:100B700005D0F6CFE9FFF7CFEAFFEF50266E2650FB
:100B8000000AD8B41200780AD8A4DFD720C0D9FF51
:100B900021C0DAFFDECF23F0DDCF24F0020E2026C5
:100BA000000E2122010E266E14D02650020D010ED9
:100BB000F324F66E080EF420F76EF86A000EF822A1
:100BC0000900F550235C0900F5502458D8A005D041
:100BD000262A040E2618D8A4E8D726C025F02BD044
:100BE00023C013F024C014F02550020D010EF3248D
:100BF000F66E080EF420F76EF86A000EF82209006F
:100C0000F5CF15F00A00F5CF16F0FCEC09F0135003
:100C10000F0B226E2250010D090EF324F66E080E02
:100C2000F420F76EF86A000EF8220800F5CF26F0DF
:100C30002650EAEC0AF025062528D8A4D1D71AC0F8
:100C4000F6FF1BC0F7FF1CC0F8FF010E1A26000EAE
:100C50001B221C22F8BA03D00800F55005D0F6CFAD
:100C6000E9FFF7CFEAFFEF50266E2650D8B4120006
:100C700061D7AFEC0AF02B0E0001AE6F080EAF6F1C
:100C8000250EB16F800EB06F010EB26F8FEC08F0C1
:100C9000010E8BEC0AF09DEC0AF0D7EC06F0C8ECE4
:100CA0000AF0050E0001C06F0F0EBF6FF10EE82EA7
:100CB000FED7BF2FFCD7C02FFAD7270E0001B26F87
:100CC000080EB36F270EB46F080EB56F54EC07F023
:100CD000010EBEEC0AF000019F51D8B45DD0000EA9
:100CE0009F6F74EC0AF020EE92F0050EEBCFDBFF65
:100CF000E806FCE294C0A0F095C0A1F0290E000126
:100D0000A26F080EA36F4DEC0AF00001A051A111D3
:100D1000D8A403D0DDEC0AF03FD094C0A0F095C079
:100D2000A1F02F0E0001A26F080EA36F4DEC0AF088
:100D30000001A051A111D8A403D0C8EC0AF02CD016
:100D400094C0A0F095C0A1F0270E0001A26F080E7C
:100D5000A36F4DEC0AF00001A051A111D8B41CD032
:100D600094C0A0F095C0A1F02D0EA26F080EA36F45
:100D70004DEC0AF00001A051A111D8A402D0FF004F
:100D80000BD0250E0001B26F080EB36F2F0EB46F9B
:100D9000080EB56F54EC07F000019E51D8B49BD7F4
:100DA000000E9E6F31EC09F02BEC08F094D73F0E4B
:100DB00093163F0E9312000E0001A06F040EA06563
:100DC00001D01200A0510A0D600EF324D96E000E5E
:100DD000F420DA6EA0C0DFFFA0510A0D010EF32649
:100DE000000EF422600EF324D96E000EF420DA6EA9
:100DF000010EDF6EA0510A0D020EF326000EF42242
:100E0000600EF324D96E000EF420DA6E810EDE6ED1
:100E10000F0EDD6EA0510A0D040EF326000EF42213
:100E2000600EF324D96E000EF420DA6E070EDF6E2A
:100E3000A0510A0D060EF326000EF422600EF324D4
:100E4000D96E000EF420DA6E000EDF6EA0510A0D8E
:100E5000050EF326000EF422600EF324D96E000E68
:100E6000F420DA6E000EDF6EA0510A0D070EF32695
:100E7000000EF422600EF324D96E000EF420DA6E18
:100E8000810EDE6E0F0EDD6EA0510A0D090EF326E7
:100E9000000EF422600EF324D96E000EF420DA6EF8
:100EA000A0C0DFFFA02B8AD741C0A7F042C0A8F0A6
:100EB0000001A751A811D8A4000EA96FE8EC04F016
:100EC000C4C0A7F0C5C0A8F00001A751A811D8A4BC
:100ED000000EA96FE8EC04F0C1C0A7F0C2C0A8F0F2
:100EE000C3C0A9F0E8EC04F0350E0001A76F080EAE
:100EF000A86FA751A811D8A4000EA96FE8EC04F0C0
:100F0000B2C0A7F0B3C0A8F00001A96BA751A81107
:100F1000D8B405D0070EB36501D001D0A98BE8EC99
:100F200004F0350E0001A76F080EA86FA751A81195
:100F3000D8A4000EA96FE8EC04F0B4C0A7F0B5C0C7
:100F4000A8F00001A96BA751A811D8B405D0070ECD
:100F5000B56501D001D0A98BE8EC04F03FC0A7F043
:100F600040C0A8F00001A751A811D8A4000EA96F95
:100F7000E8EC04F0060E0001B66F300EE82EFED746
:100F8000B62FFCD700F01200000E0001A96FA7AF2A
:100F90000AD0A71FA61FA51FA46D000EA523A62378
:100FA000A723010EA96FA3AF0AD0A31FA21FA11FE1
:100FB000A06D000EA123A223A323010EA91B000EE6
:100FC000AA6F000EAB6F000EAC6F000EAD6FA45198
:100FD000A511A611A711D8B42AD0010EA86F06D06A
:100FE000D890A437A537A637A737A82BA7AFF8D72F
:100FF000D890AA37AB37AC37AD37A451A05DA55117
:10100000A159A651A259A751A359D8A009D0A451BA
:10101000A05FA551A15BA651A25BA751A35BAA81CA
:10102000D890A733A633A533A433A82FE1D7A9516D
:10103000D8B408D0AD1FAC1FAB1FAA6D000EAB23F8
:10104000AC23AD23AAC0A0F0ABC0A1F0ACC0A2F00D
:10105000ADC0A3F01200000E0001BE6F040EBE650D
:1010600001D01200BE510A0D060EF326000EF42226
:10107000600EF324D96E000EF420DA6EBE510A0D14
:10108000050EF326000EF422600EF324E16E000E2E
:10109000F420E26EDE50E618D8B43FD0BE510A0DFF
:1010A000600EF324D96E000EF420DA6E00EEA0F08C
:1010B000090EDBCFEBFFE806FCE2B90EAA6F000ECB
:1010C000AB6FBC0EAC6F000EAD6F25EC0AF0B90E25
:1010D0000001B26F000EB36FBC0EB46F000EB56F9F
:1010E00054EC07F00001BE510A0D060EF326000E67
:1010F000F422600EF324D96E000EF420DA6EBE5195
:101100000A0D050EF326000EF422600EF324E16EA4
:10111000000EF420E26EDFCFE7FFBE2B9FD7949E38
:10112000948CAEC0C1F0AFC0C2F00001C151C21179
:10113000D8A4000EC36F000E9F6F000E8BEC0AF058
:10114000AC9CAC98AC94AB9CB89AB898B896B0C02C
:10115000A4F0B1C0A5F00001A66BA76B000EA06FB4
:10116000240EA16FF40EA26F000EA36FC4EC07F063
:10117000A0C0B3F0A1C0B4F0A2C0B5F0A3C0B6F057
:10118000B3C0A0F0B4C0A1F0B5C0A2F0B6C0A3F047
:10119000400E0001A46F000EA56F000EA66F000E9A
:1011A000A76FC4EC07F00001A005AF6EB251D8B430
:1011B0001200D08EF28EF28C9E9A9F9A9D8A120017
:1011C0000600FACF01F0FBCF02F0E9CF03F0EACF3F
:1011D00004F0E1CF05F0E2CF06F0D9CF07F0DACF87
:1011E00008F0F3CF09F0F4CF0AF0F6CF0BF0F7CF09
:1011F0000CF0F8CF0DF0F5CF0EF044C00FF045C065
:1012000010F046C011F047C012F0F2A404D0010E55
:1012100000019E6FF29412C047F011C046F010C05A
:1012200045F00FC044F00EC0F5FF0DC0F8FF0CC034
:10123000F7FF0BC0F6FF0AC0F4FF09C0F3FF08C0B8
:10124000DAFF07C0D9FF06C0E2FF05C0E1FF04C016
:10125000EAFF03C0E9FF02C0FBFF01C0FAFF4492AE
:101260001100000E0001A46F040EA46501D012004D
:10127000A4510A0D060EF326000EF422600EF3248C
:10128000D96E000EF420DA6EA4510A0D090EF32671
:10129000000EF422600EF324E16E000EF420E26EE4
:1012A000E750A06FA4510A0D070EF326000EF4229A
:1012B000600EF324E16E000EF420E26EE6CFA1F0A2
:1012C000E5CFA2F0A1C0E1FFA2C0E2FFE750A36F0B
:1012D000A02B02D0D890A333A02FFCD70001A3519C
:1012E000010BDF6EA42BC0D741C01AF042C01BF027
:1012F0001A501B10D8A4000E1C6E95EC05F03DC0D2
:101300001AF03EC01BF01A501B10D8A4000E1C6E21
:1013100095EC05F0220E1A6E080E1B6E1A501B106B
:10132000D8A4000E1C6EA4C11DF01E6A95EC05F039
:101330003FC01AF040C01BF01A501B10D8A4000E7A
:101340001C6E95EC05F01200EC0EF66E150EF76EA5
:10135000000EF86E0900F5CFC4F00900F5CFC5F016
:10136000E60EF66E150EF76E000EF86E00EE3DF00E
:1013700010EE06F00900F5CFEEFFE550E150FAE17E
:1013800001EE00F0A60EEE6AE806FDE100EE60F068
:10139000400EEE6AE806FDE1436A44904492000183
:1013A00039EF06F0000E0001A56F000EA46FA251E8
:1013B000A311D8B41CD0010EA66F04D0D890A237C8
:1013C000A337A62BA3AFFAD7D890A437A537A2513D
:1013D000A05DA351A159D8A005D0A251A05FA351EF
:1013E000A15BA481D890A333A233A62FEDD7A4C0CC
:1013F000A0F0A5C0A1F01200000E186E000E176E2E
:1014000015501610D8B41CD0010E196E04D0D89007
:1014100015361636192A16AEFAD7D890173618365A
:101420001550135C16501458D8A005D01550135EF3
:101430001650145A1780D89016321532192EEDD73F
:1014400017C013F018C014F01200AAC0D9FFABC027
:10145000DAFF500EDF6E000120EE01F0AA51D9260E
:10146000AB51DA22A051300FDF6E20EE02F0AA510C
:10147000D926AB51DA22000EDF6EA651300FACC078
:10148000D9FFADC0DAFFDF6E20EE01F0AC51D926F6
:10149000AD51DA22000EDF6E120005D00001A04B24
:1014A000A12BA24BA32BA0C0D9FFA1C0DAFFDF5014
:1014B0000001A46FA2C0F6FFA3C0F7FFF86A0800FE
:1014C000F5500008A425A56FA551D8A407D0A0C049
:1014D000D9FFA1C0DAFFDF50D8A4E0D7A551A06F93
:1014E000A16BA0BFA10712000B0E0001986F010EA7
:1014F000996F3E0E9A6F010E9B6F710E9C6F010EDD
:101500009D6F20EE98F000EEA0F0050EDBCFEBFF14
:10151000E806FCE212000001A06F0001A051D8B45F
:1015200006D0949E948CAC8AAB88AB8E1200949EAD
:10153000949CAC9AAB98AB9E1200000EBEEC0AF0E5
:10154000D59CD59AD598D596D550F80B0209D56E6D
:10155000D08EF28EF28CF294F184F28A1200000E98
:10156000926E000E806E000E936E000E816E000E65
:10157000946E000E826E0F0EC16E12000001A06FFD
:101580000001A051D8B402D0D58E1200D59E120011
:1015900062C0D9FF63C0DAFF3F0EDF161200000100
:1015A000A16F0001A151D6EC0AF012000001A06F5A
:1015B000ACA2FED7A0C0ADFF120062C0D9FF63C0CD
:1015C000DAFFC00EDF121200136EACA2FED713C0FA
:1015D000ADFF1200146E1450E4EC0AF01200AB5090
:0E15E000AB50AE5012001A08310833081E0836
:020000040020DA
:08000000FFFFFFFFFFFFFFFF00
:020000040030CA
:0E000000040C1F1EFF8080FF0FC00FE00F409A
:00000001FF
