:040000006AEF00F0B3
:060008004482FFED08F048
:100018004480D8CF28F0E8CF29F0E0CF2AF0FACFF3
:100028002BF0FBCF2CF0E9CF2DF0EACF2EF0E1CF6B
:100038002FF0E2CF30F0D9CF31F0DACF32F0F3CF72
:1000480033F0F4CF34F0F6CF35F0F7CF36F0F8CF01
:1000580037F0F5CF38F044C039F045C03AF046C023
:100068003BF047C03CF09EAA05D016EC0BF01CEC08
:1000780004F09E9A3CC047F03BC046F03AC045F0B9
:1000880039C044F038C0F5FF37C0F8FF36C0F7FF75
:1000980035C0F6FF34C0F4FF33C0F3FF32C0DAFFD7
:1000A80031C0D9FF30C0E2FF2FC0E1FF2EC0EAFF08
:1000B8002DC0E9FF2CC0FBFF2BC0FAFF2AC0E0FFD0
:1000C80029C0E8FF28C0D8FF44901000F3EF09F0DA
:100800000001001000000100103031323334353661
:10081000373839616263646566005B415D005B4D3A
:100820005D00257800450049004C005000520055FD
:1008300000240026003A0000276EB5D0260E2718A7
:10084000D8A410D0000E01010A6F000E3D6F000EFB
:10085000706F000EA36F000E0001A26F010E010168
:10086000A56F1200000E0101A56F12003A0E2718A5
:10087000D8A40DD0020EA56F0A51010D000EF3246D
:10088000D96E010EF420DA6E000EDF6E12000A51EE
:10089000010D000EF324D96E010EF420DA6E27C08C
:1008A000DFFF0A2B0A0E0A651200000E0A6F120003
:1008B0003A0E2718D8A40DD0030EA56F3D51010D97
:1008C0000B0EF324D96E010EF420DA6E000EDF6EEB
:1008D00012003D51010D0B0EF324D96E010EF420D0
:1008E000DA6E27C0DFFF3D2B320E3D651200000E91
:1008F0003D6F12003A0E2718D8A40DD0040EA56F34
:100900007051010D3E0EF324D96E010EF420DA6E03
:10091000000EDF6E12007051010D3E0EF324D96EF1
:10092000010EF420DA6E27C0DFFF702B320E7065E7
:100930001200000E706F12003A0E2718D8A40DD0C6
:10094000050EA56FA351010D710EF324D96E010E92
:10095000F420DA6E000EDF6E1200A351010D710E4D
:10096000F324D96E010EF420DA6E27C0DFFFA32B2B
:10097000320EA3651200000EA36F1200240E27187A
:10098000D8A409D0C3EC09F0000E0101A56F010E37
:100990000001A26F12002750D00F0101A46F1200B6
:1009A000000EA56F12000101A551000AD8B446D768
:1009B000010AD8B45BD7030AD8B47AD7010AD8B4ED
:1009C00099D7070AD8B4B8D7010AD8B4D7D7E8D787
:1009D000050E0001C36F0F0EC26FF10EE82EFED799
:1009E000C22FFCD7C32FFAD7D6EC0AF02B0E00018A
:1009F000B16F080EB26F250EB46F800EB36F010E8B
:100A0000B56FAAEC08F0010EB2EC0AF0C4EC0AF0E3
:100A1000F2EC06F0EFEC0AF0050E0001C36F0F0ECA
:100A2000C26FF10EE82EFED7C22FFCD7C32FFAD724
:100A3000270E0001B56F080EB66F270EB76F080EB0
:100A4000B86F6FEC07F0010EE5EC0AF00001A2515F
:100A5000D8B46CD0000EA26F9BEC0AF020EE92F09E
:100A6000050EEBCFDBFFE806FCE294C0A3F095C0D7
:100A7000A4F0290E0001A56F080EA66F74EC0AF011
:100A80000001A351A411D8A403D004EC0BF04ED064
:100A900094C0A3F095C0A4F02F0E0001A56F080E1E
:100AA000A66F74EC0AF00001A351A411D8A403D0DE
:100AB000EFEC0AF03BD094C0A3F095C0A4F0270E51
:100AC0000001A56F080EA66F74EC0AF00001A35197
:100AD000A411D8B42BD094C0A3F095C0A4F02D0ECF
:100AE000A56F080EA66F74EC0AF00001A351A411C3
:100AF000D8A411D0000EE5EC0AF0000EB2EC0AF01A
:100B0000680E0001C26FE40EE82EFED7C22FFCD79C
:100B100000F0FF000BD0250E0001B56F080EB66F78
:100B20002F0EB76F080EB86F6FEC07F00001A151E0
:100B3000D8B48CD7000EA16F50EC09F046EC08F049
:100B400085D7AD0E0001AE6F000EAF6F8BD0250EB6
:100B5000B419D8B404D0B451F6EC0AF083D0000E26
:100B60000001AD6F04D0B451F6EC0AF07BD0AAC0FE
:100B7000F6FFABC0F7FFACC0F8FF010E0001AA27DB
:100B8000000EAB23AC23F8BA03D00800F55005D013
:100B9000F6CFE9FFF7CFEAFFEF500001B46FB45191
:100BA000000AD8B41200780AD8A4DDD7AEC0D9FFA5
:100BB000AFC0DAFFDECFB1F0DDCFB2F0020E000140
:100BC000AE27000EAF23010EB46F14D0B451020D46
:100BD000010EF324F66E080EF420F76EF86A000E8C
:100BE000F8220900F550B15D0900F550B259D8A0BE
:100BF00005D0B42B040EB419D8A4E8D7B4C0B3F010
:100C00002CD0B1C0A3F0B2C0A4F0B351020D010EBC
:100C1000F324F66E080EF420F76EF86A000EF82240
:100C20000900F5CFA5F00A00F5CFA6F021EC0AF0F7
:100C30000001A3510F0BB06FB051010D090EF32449
:100C4000F66E080EF420F76EF86A000EF82208001F
:100C5000F5CFB4F0B451F6EC0AF00001B307B329B4
:100C6000D8A4CFD7AAC0F6FFABC0F7FFACC0F8FF3F
:100C7000010E0001AA27000EAB23AC23F8BA03D063
:100C80000800F55005D0F6CFE9FFF7CFEAFFEF50A7
:100C90000001B46FB451D8B4120059D71D0E206EA4
:100CA000000E216E85D0250E2618D8B404D026500B
:100CB00011EC0BF07DD0000E1F6E04D0265011EC0D
:100CC0000BF076D01AC0F6FF1BC0F7FF1CC0F8FF70
:100CD000010E1A26000E1B221C22F8BA03D00800AF
:100CE000F55005D0F6CFE9FFF7CFEAFFEF50266EBB
:100CF0002650000AD8B41200780AD8A4DFD720C042
:100D0000D9FF21C0DAFFDECF23F0DDCF24F0020EC1
:100D10002026000E2122010E266E14D02650020D30
:100D2000010EF324F66E080EF420F76EF86A000E3A
:100D3000F8220900F550235C0900F5502458D8A08A
:100D400005D0262A040E2618D8A4E8D726C025F0F8
:100D50002BD023C013F024C014F02550020D010E37
:100D6000F324F66E080EF420F76EF86A000EF822EF
:100D70000900F5CF15F00A00F5CF16F04BEC0AF09C
:100D800013500F0B226E2250010D090EF324F66E44
:100D9000080EF420F76EF86A000EF8220800F5CF6E
:100DA00026F0265011EC0BF025062528D8A4D1D723
:100DB0001AC0F6FF1BC0F7FF1CC0F8FF010E1A2671
:100DC000000E1B221C22F8BA03D00800F55005D0F3
:100DD000F6CFE9FFF7CFEAFFEF50266E2650D8B4E2
:100DE000120061D73F0E93163F0E9312000E0001C2
:100DF000A36F040EA36501D01200A3510A0D600E6B
:100E0000F324D96E000EF420DA6EA3C0DFFFA351E5
:100E10000A0D010EF326000EF422600EF324D96EA3
:100E2000000EF420DA6E010EDF6EA3510A0D020EE1
:100E3000F326000EF422600EF324D96E000EF42087
:100E4000DA6E810EDE6E0F0EDD6EA3510A0D040EFA
:100E5000F326000EF422600EF324D96E000EF42067
:100E6000DA6E070EDF6EA3510A0D060EF326000E92
:100E7000F422600EF324D96E000EF420DA6E000E18
:100E8000DF6EA3510A0D050EF326000EF422600E4C
:100E9000F324D96E000EF420DA6E000EDF6EA3513B
:100EA0000A0D070EF326000EF422600EF324D96E0D
:100EB000000EF420DA6E810EDE6E0F0EDD6EA35191
:100EC0000A0D090EF326000EF422600EF324D96EEB
:100ED000000EF420DA6EA3C0DFFFA32B8AD741C037
:100EE000AAF042C0ABF00001AA51AB11D8A4000E89
:100EF000AC6FA1EC05F0C4C0AAF0C5C0ABF0000116
:100F0000AA51AB11D8A4000EAC6FA1EC05F09EC0A5
:100F1000AAF09FC0ABF0A0C0ACF0A1EC05F0350E7C
:100F20000001AA6F080EAB6FAA51AB11D8A4000E36
:100F3000AC6FA1EC05F0B5C0AAF0B6C0ABF00001F3
:100F4000AC6BAA51AB11D8B405D0070EB66501D071
:100F500001D0AC8BA1EC05F0350E0001AA6F080E94
:100F6000AB6FAA51AB11D8A4000EAC6FA1EC05F089
:100F7000B7C0AAF0B8C0ABF00001AC6BAA51AB117E
:100F8000D8B405D0070EB86501D001D0AC8BA1EC68
:100F900005F03FC0AAF040C0ABF00001AA51AB1170
:100FA000D8A4000EAC6FA1EC05F0060E0001B96FDD
:100FB000300EE82EFED7B92FFCD700F01200000E3D
:100FC0000001AC6FAAAF0AD0AA1FA91FA81FA76D66
:100FD000000EA823A923AA23010EAC6FA6AF0AD046
:100FE000A61FA51FA41FA36D000EA423A523A6233F
:100FF000010EAC1B000EAD6F000EAE6F000EAF6F9A
:10100000000EB06FA751A811A911AA11D8B42AD007
:10101000010EAB6F06D0D890A737A837A937AA37EB
:10102000AB2BAAAFF8D7D890AD37AE37AF37B037C4
:10103000A751A35DA851A459A951A559AA51A659D0
:10104000D8A009D0A751A35FA851A45BA951A55B63
:10105000AA51A65BAD81D890AA33A933A833A73390
:10106000AB2FE1D7AC51D8B408D0B01FAF1FAE1F23
:10107000AD6D000EAE23AF23B023ADC0A3F0AEC064
:10108000A4F0AFC0A5F0B0C0A6F01200000E0001A1
:10109000C16F040EC16501D01200C1510A0D060EC8
:1010A000F326000EF422600EF324D96E000EF42015
:1010B000DA6EC1510A0D050EF326000EF422600E01
:1010C000F324E16E000EF420E26EDE50E618D8B490
:1010D0003FD0C1510A0D600EF324D96E000EF420EA
:1010E000DA6E00EEA3F0090EDBCFEBFFE806FCE2C0
:1010F000BC0EAD6F000EAE6FBF0EAF6F000EB06FC7
:1011000093EC09F0BC0E0001B56F000EB66FBF0E78
:10111000B76F000EB86F6FEC07F00001C1510A0DF8
:10112000060EF326000EF422600EF324D96E000E94
:10113000F420DA6EC1510A0D050EF326000EF422DA
:10114000600EF324E16E000EF420E26EDFCFE7FFC5
:10115000C12B9FD7949E948CB1C09EF0B2C09FF0DB
:1011600000019E519F11D8A4000EA06F000EA26F27
:10117000000EB2EC0AF0AC9CAC98AC94AB9CB89A64
:10118000B898B896AB94AB92000EAE6EB3C0A7F011
:10119000B4C0A8F00001A96BAA6B000EA36F240EC7
:1011A000A46FF40EA56F000EA66FDFEC07F0A3C0CE
:1011B000B6F0A4C0B7F0A5C0B8F0A6C0B9F0B6C0EC
:1011C000A3F0B7C0A4F0B8C0A5F0B9C0A6F0400E17
:1011D0000001A76F000EA86F000EA96F000EAA6F86
:1011E000DFEC07F00001A305AF6EB551D8B41200D3
:1011F000D08EF28EF28C9E9A9F9A9D8A12000600E3
:10120000FACF01F0FBCF02F0E9CF03F0EACF04F010
:10121000E1CF05F0E2CF06F0D9CF07F0DACF08F042
:10122000F3CF09F0F4CF0AF0F6CF0BF0F7CF0CF0C4
:10123000F8CF0DF0F5CF0EF044C00FF045C010F020
:1012400046C011F047C012F0F2A404D0010E000114
:10125000A16FF29412C047F011C046F010C045F0E3
:101260000FC044F00EC0F5FF0DC0F8FF0CC0F7FF33
:101270000BC0F6FF0AC0F4FF09C0F3FF08C0DAFF95
:1012800007C0D9FF06C0E2FF05C0E1FF04C0EAFFC6
:1012900003C0E9FF02C0FBFF01C0FAFF4492110046
:1012A000000E0001A76F040EA76501D01200A75120
:1012B0000A0D060EF326000EF422600EF324D96EFA
:1012C000000EF420DA6EA7510A0D090EF326000E67
:1012D000F422600EF324E16E000EF420E26EE7507B
:1012E000A36FA7510A0D070EF326000EF422600E1D
:1012F000F324E16E000EF420E26EE6CFA4F0E5CF19
:10130000A5F0A4C0E1FFA5C0E2FFE750A66FA32BA4
:1013100002D0D890A633A32FFCD70001A651010B11
:10132000DF6EA72BC0D7ADC0D9FFAEC0DAFF500E1D
:10133000DF6E000120EE01F0AD51D926AE51DA2268
:10134000A351300FDF6E20EE02F0AD51D926AE5121
:10135000DA22000EDF6EA951D8B406D0AFC0D9FF93
:10136000B0C0DAFF4F0E05D0AFC0D9FFB0C0DAFF72
:10137000430EDF6E20EE01F0AF51D926B051DA22D4
:10138000000EDF6E120041C01AF042C01BF01A506E
:101390001B10D8A4000E1C6E4EEC06F03DC01AF0D7
:1013A0003EC01BF01A501B10D8A4000E1C6E4EEC51
:1013B00006F0220E1A6E080E1B6E1A501B10D8A4CF
:1013C000000E1C6EA4C11DF01E6A4EEC06F03FC05C
:1013D0001AF040C01BF01A501B10D8A4000E1C6E4F
:1013E0004EEC06F012003A0EF66E160EF76E000E78
:1013F000F86E0900F5CFC4F00900F5CFC5F0340E42
:10140000F66E160EF76E000EF86E00EE3DF010EE62
:1014100006F00900F5CFEEFFE550E150FAE101EEEC
:1014200000F0A60EEE6AE806FDE100EE60F0430E65
:10143000EE6AE806FDE1436A449044920001E8EF59
:1014400004F0000E0001A86F000EA76FA551A611B1
:10145000D8B41CD0010EA96F04D0D890A537A637F8
:10146000A92BA6AFFAD7D890A737A837A551A35D67
:10147000A651A459D8A005D0A551A35FA651A45B3D
:10148000A781D890A633A533A92FEDD7A7C0A3F085
:10149000A8C0A4F01200000E186E000E176E1550B2
:1014A0001610D8B41CD0010E196E04D0D890153681
:1014B0001636192A16AEFAD7D890173618361550A0
:1014C000135C16501458D8A005D01550135E165052
:1014D000145A1780D89016321532192EEDD717C02E
:1014E00013F018C014F0120005D00001A34BA42B78
:1014F000A54BA62BA3C0D9FFA4C0DAFFDF50000183
:10150000A76FA5C0F6FFA6C0F7FFF86A0800F55060
:101510000008A725A86FA851D8A407D0A3C0D9FF59
:10152000A4C0DAFFDF50D8A4E0D7A851A36FA46B02
:10153000A3BFA40712000B0E0001986F010E996F54
:101540003E0E9A6F010E9B6F710E9C6F010E9D6F88
:1015500020EE98F000EEA3F0050EDBCFEBFFE806DF
:10156000FCE212000001A36F0001A351D8B406D021
:10157000949E948CAC8AAB88AB8E1200949E949C03
:10158000AC9AAB98AB9E1200000EE5EC0AF0D59C2D
:10159000D59AD598D596D550F80B0209D56ED08E30
:1015A000F28EF28CF294F184F28A1200000E926EA6
:1015B000000E806E000E936E000E816E000E946E13
:1015C000000E826E0F0EC16E12000001A36F0001AB
:1015D000A351D8B402D0D58E1200D59E120062C09D
:1015E000D9FF63C0DAFF3F0EDF1612000001A46FBF
:1015F0000001A451FDEC0AF012000001A36FACA29F
:10160000FED7A3C0ADFF120062C0D9FF63C0DAFFEE
:10161000C00EDF121200136EACA2FED713C0ADFFD6
:101620001200146E14500BEC0BF01200AB50AB50C8
:0C163000AE5012001A08310833081E08E2
:020000040020DA
:08000000FFFFFFFFFFFFFFFF00
:020000040030CA
:0E000000040C1F1EFF8080FF0FC00FE00F409A
:00000001FF
