:0400000076EF00F0A7
:060008004A820FED09F031
:100018004A80D8CFC4F0E8CFC5F0E0CFC6F0FACF19
:10002800C7F0FBCFC8F0E9CFC9F0EACFCAF0E1CFFB
:10003800CBF0E2CFCCF0D9CFCDF0DACFCEF0F3CF02
:10004800CFF0F4CFD0F0F6CFD1F0F7CFD2F0F8CF91
:10005800D3F0F5CFD4F04AC0D5F04BC0D6F04CC0A1
:10006800D7F04DC0D8F0F2A403D0F294010E3D6E43
:100078009EA00CD05E0ECF6E000ECE6E630E3F605B
:1000880002D03F2A02D0010E3C6E9E90D8C04DF09F
:10009800D7C04CF0D6C04BF0D5C04AF0D4C0F5FF5D
:1000A800D3C0F8FFD2C0F7FFD1C0F6FFD0C0F4FF2D
:1000B800CFC0F3FFCEC0DAFFCDC0D9FFCCC0E2FF7E
:1000C800CBC0E1FFCAC0EAFFC9C0E9FFC8C0FBFF57
:1000D800C7C0FAFFC6C0E0FFC5C0E8FFC4C0D8FF6C
:0800E8004A901000A2EF0BF09A
:100800000001001000000100103031323334353661
:10081000373839616263646566005B415D005B4D3A
:100820005D002578004100450049004C0050005211
:10083000005500240026003A0000050E0101B56FA6
:100840000F0EB46FF10EE82EFED7B42FFCD7B52FE4
:10085000FAD796EC0CF02D0E0001E66F080EE76F4C
:10086000250EE96F800EE86F010EEA6FAFEC0AF01B
:10087000010E31EC0CF043EC0CF077EC0CF087EC53
:100880000CF0050E0101B56F0F0EB46FF10EE82EDE
:10089000FED7B42FFCD7B52FFAD7000E3A6E000E54
:1008A000396E000E3C6E000E3D6E050E0101B56FF7
:1008B0000F0EB46FF10EE82EFED7B42FFCD7B52F74
:1008C000FAD781683C50D8B409D0000EA5EC0CF0E2
:1008D000000E3F6EC4EC09F0000E3C6E4050D8B4E0
:1008E000B7D0000E406E07EC0CF020EE28F0050E9D
:1008F000EBCFDBFFE806FCE281BA04D00101B46B68
:10090000B42B02D00101B46BB43BB4478150B4198D
:10091000DF0BB419816E000E3E6E030E3918D8A499
:1009200002D0000E3A6E2AC0D9F02BC0DAF02B0E9E
:100930000001DB6F080EDC6FC9EC0BF00001D95130
:10094000DA11D8A406D0000E3F6E010EA5EC0CF013
:100950007FD02AC0D9F02BC0DAF0310E0001DB6F56
:10096000080EDC6FC9EC0BF00001D951DA11D8A4E4
:1009700008D0000E3F6E000EA5EC0CF06AEC09F0FA
:1009800067D02AC0D9F02BC0DAF0290E0001DB6F46
:10099000080EDC6FC9EC0BF00001D951DA11D8A4B4
:1009A00009D02CC0D9FF2DC0DAFFDF50D00F55EC95
:1009B0000CF04ED02AC0D9F02BC0DAF02F0E000177
:1009C000DB6F080EDC6FC9EC0BF00001D951DA11B6
:1009D000D8A40BD0680E0101B46FE40EE82EFED748
:1009E000B42FFCD700F0FF0033D02AC0D9F02BC0C1
:1009F000DAF02D0E0001DB6F080EDC6FC9EC0BF096
:100A00000001D951DA11D8B423D02AC0D9F02BC0B3
:100A1000DAF0250EDB6F080EDC6FC9EC0BF000017D
:100A2000D951DA11D8A409D02CC0D9FF2DC0DAFFD2
:100A3000DF50D00FB9EC0CF00BD0270E0101A66FE0
:100A4000080EA76F310EA86F080EA96F2CEC08F0E6
:100A50003D50D8B437D7000E3D6E1DEC0AF0A0EC27
:100A600008F03C0E3E6002D03E2A05D03950D8A492
:100A700002D0030E3A6E39503A18D8A417D03A046F
:100A8000D8B414D0030E3A18D8B410D01BD7000E27
:100A90000BD03B50D8A402D0010E3B6E3B50020D50
:100AA000F3CF3BF011D07F0E3B6E0ED03A50000AD0
:100AB000D8B4EDD7010AD8B4ECD7030AD8B4F3D729
:100AC000010AD8B4E6D7E3D73B50F0EC0BF03AC0BC
:100AD00039F0F8D6156EB1D0260E1518D8A40ED060
:100AE000000E01010A6F000E3D6F000E706F000EC8
:100AF000A36F000E406E010EA56F1200000E0101E3
:100B0000A56F12003A0E1518D8A40DD0020EA56FCD
:100B10000A51010D000EF324D96E010EF420DA6E95
:100B2000000EDF6E12000A51010D000EF324D96E83
:100B3000010EF420DA6E15C0DFFF0A2B0A0E0A65DB
:100B40001200000E0A6F12003A0E1518D8A40DD02C
:100B5000030EA56F3D51010D0B0EF324D96E010E4E
:100B6000F420DA6E000EDF6E12003D51010D0B0E07
:100B7000F324D96E010EF420DA6E15C0DFFF3D2B91
:100B8000320E3D651200000E3D6F12003A0E151830
:100B9000D8A40DD0040EA56F7051010D3E0EF324A4
:100BA000D96E010EF420DA6E000EDF6E1200705165
:100BB000010D3E0EF324D96E010EF420DA6E15C03D
:100BC000DFFF702B320E70651200000E706F120086
:100BD0003A0E1518D8A40DD0050EA56FA351010D1E
:100BE000710EF324D96E010EF420DA6E000EDF6E62
:100BF0001200A351010D710EF324D96E010EF420E1
:100C0000DA6E15C0DFFFA32B320EA3651200000EB3
:100C1000A36F1200240E1518D8A408D01FEC0BF0F7
:100C2000000E0101A56F010E406E12001550D00F8D
:100C3000A46F1200000EA56F12000101A551000A59
:100C4000D8B44AD7010AD8B45DD7030AD8B47CD740
:100C5000010AD8B49BD7070AD8B4BAD7010AD8B4C6
:100C6000D9D7E8D7E30E0001E56F000EE66F8BD011
:100C7000250EEA19D8B404D0EA511DEC0CF083D04B
:100C8000000E0001E36F04D0EA511DEC0CF07BD0A4
:100C9000E0C0F6FFE1C0F7FFE2C0F8FF010E00017F
:100CA000E027000EE123E223F8BA03D00800F55054
:100CB00005D0F6CFE9FFF7CFEAFFEF500001EA6F6A
:100CC000EA51000AD8B41200780AD8A4DDD7E5C0EA
:100CD000D9FFE6C0DAFFDECFE7F0DDCFE8F0020EA5
:100CE0000001E527000EE623010EEA6F14D0EA5159
:100CF000020D010EF324F66E080EF420F76EF86A6A
:100D0000000EF8220900F550E75D0900F550E8599A
:100D1000D8A005D0EA2B040EEA19D8A4E8D7EAC077
:100D2000E9F02CD0E7C0D9F0E8C0DAF0E951020DC3
:100D3000010EF324F66E080EF420F76EF86A000E2A
:100D4000F8220900F5CFDBF00A00F5CFDCF04FEC1C
:100D50000BF00001D9510F0BE46FE451010D090EA6
:100D6000F324F66E080EF420F76EF86A000EF822EF
:100D70000800F5CFEAF0EA511DEC0CF00001E9079C
:100D8000E929D8A4CFD7E0C0F6FFE1C0F7FFE2C061
:100D9000F8FF010E0001E027000EE123E223F8BA7C
:100DA00003D00800F55005D0F6CFE9FFF7CFEAFFF2
:100DB000EF500001EA6FEA51D8B4120059D7000190
:100DC000DC6FDCC037F0386A000E0001DD6F92D0B6
:100DD000DD510A0D600EF324D96E000EF420DA6E98
:100DE000DDC0DFFFDD510A0D010EF326000EF422F7
:100DF000600EF324D96E000EF420DA6E010EDF6E61
:100E0000DD510A0D020EF326000EF422600EF324CB
:100E1000D96E000EF420DA6E810EDE6E0F0EDD6EDE
:100E2000DD510A0D040EF326000EF422600EF324A9
:100E3000D96E000EF420DA6EDDC0DFFFDD510A0D41
:100E4000060EF326000EF422600EF324D96E000E77
:100E5000F420DA6E000EDF6EDD510A0D050EF3266A
:100E6000000EF422600EF324D96E000EF420DA6E28
:100E7000010EDF6EDD510A0D070EF326000EF4227F
:100E8000600EF324D96E000EF420DA6E800EDE6E52
:100E90000F0EDD6EDD510A0D090EF326000EF42251
:100EA000600EF324D96E000EF420DA6EDD29DF6EB9
:100EB000DDC0D9F0010EDA6FD92B02D0D890DA3725
:100EC000D92FFCD70001DA519314931A9250FF0ADC
:100ED000D96FDDC0DAF0010EDA27010EDB6FDA2BF5
:100EE00002D0D890DB37DA2FFCD70001DB51D915BF
:100EF000921ADD2BDD51D96FDA6B3750D95DDA519B
:100F0000800ADB6F3850800ADB59D8B0120060D7F6
:100F10000B0E0F6E000E106E85D0250E1418D8B46F
:100F200004D0145066EC0CF07DD0000E0D6E04D091
:100F3000145066EC0CF076D008C0F6FF09C0F7FF3D
:100F40000AC0F8FF010E0826000E09220A22F8BA8C
:100F500003D00800F55005D0F6CFE9FFF7CFEAFF40
:100F6000EF50146E1450000AD8B41200780AD8A4B6
:100F7000DFD70FC0D9FF10C0DAFFDECF11F0DDCF11
:100F800012F0020E0F26000E1022010E146E14D065
:100F90001450020D010EF324F66E080EF420F76EC5
:100FA000F86A000EF8220900F550115C0900F550AE
:100FB0001258D8A005D0142A040E1418D8A4E8D7C3
:100FC00014C013F02BD011C001F012C002F0135066
:100FD000020D010EF324F66E080EF420F76EF86A87
:100FE000000EF8220900F5CF03F00A00F5CF04F057
:100FF00079EC0BF001500F0B0E6E0E50010D090E27
:10100000F324F66E080EF420F76EF86A000EF8224C
:101010000800F5CF14F0145066EC0CF013061328FA
:10102000D8A4D1D708C0F6FF09C0F7FF0AC0F8FF5F
:10103000010E0826000E09220A22F8BA03D0080081
:10104000F55005D0F6CFE9FFF7CFEAFFEF50146E69
:101050001450D8B4120061D748C0E0F049C0E1F0A4
:101060000001E051E111D8A4000EE26F32EC06F06D
:1010700044C0E0F045C0E1F00001E051E111D8A426
:10108000000EE26F32EC06F034C0E0F035C0E1F063
:1010900036C0E2F032EC06F0370E0001E06F080EC9
:1010A000E16FE051E111D8A4000EE26F32EC06F0DE
:1010B000A6C1E0F0A7C1E1F00001E26BE051E1114F
:1010C000D8B407D0070E0101A76501D002D00001F6
:1010D000E28B32EC06F0370E0001E06F080EE16F94
:1010E000E051E111D8A4000EE26F32EC06F0A8C185
:1010F000E0F0A9C1E1F00001E26BE051E111D8B4E8
:1011000007D0070E0101A96501D002D00001E28BD2
:1011100032EC06F046C0E0F047C0E1F00001E051DB
:10112000E111D8A4000EE26F32EC06F0060E0101C8
:10113000AA6F300EE82EFED7AA2FFCD700F01200BF
:10114000000E0101B36F5DD0B3510A0D060EF326F8
:10115000000EF422600EF324D96E000EF420DA6E35
:10116000B3510A0D050EF326000EF422600EF3248F
:10117000E16E000EF420E26EDE50E618D8B440D0E6
:10118000B3510A0D600EF324D96E000EF420DA6E0E
:1011900000EED9F0090EDBCFEBFFE806FCE2AE0E65
:1011A0000001E36F010EE46FB10EE56F010EE66F13
:1011B000EFEC0AF0AE0E0101A66F010EA76FB10EA3
:1011C000A86F010EA96F2CEC08F00101B3510A0DB4
:1011D000060EF326000EF422600EF324D96E000EE4
:1011E000F420DA6EB3510A0D050EF326000EF42238
:1011F000600EF324E16E000EF420E26EDFCFE7FF15
:10120000B32BB351AB6FAC6B3750AB5DAC51800AB5
:10121000AD6F3850800AAD59D8B0120095D706008E
:10122000FACF16F0FBCF17F0E9CF18F0EACF19F09C
:10123000E1CF1AF0E2CF1BF0D9CF1CF0DACF1DF0CE
:10124000F3CF1EF0F4CF1FF0F6CF20F0F7CF21F050
:10125000F8CF22F0F5CF23F04AC024F04BC025F0A0
:101260004CC026F04DC027F09EAA0ED09E9AABA48B
:1012700003D0000EAE6E08D0ABA203D0AB98AB8803
:1012800003D0AE506AEC05F027C04DF026C04CF0FC
:1012900025C04BF024C04AF023C0F5FF22C0F8FF60
:1012A00021C0F7FF20C0F6FF1FC0F4FF1EC0F3FFF0
:1012B0001DC0DAFF1CC0D9FF1BC0E2FF1AC0E1FF4E
:1012C00019C0EAFF18C0E9FF17C0FBFF16C0FAFFFC
:1012D0004A921100000E0001E16F48D0E1510A0D61
:1012E000020EF326000EF422600EF324D96E000ED7
:1012F000F420DA6EDECFD9F0DDCFDAF0D9C0D9FF35
:10130000DAC0DAFFDF50FF0ADB6FE1510A0D040E8D
:10131000F326000EF422600EF324D96E000EF420A2
:10132000DA6EDF50DC6F010EDD6FDC2B02D0D8905F
:10133000DD37DC2FFCD70001DD51DB15DE6FE1511D
:101340000A0D020EF326000EF422600EF324D96E6D
:10135000000EF420DA6EDECFDFF0DDCFE0F0DFC08C
:10136000D9FFE0C0DAFFDE51DF1AE12BE151D96F7E
:10137000DA6B3750D95DDA51800ADB6F3850800A5A
:10138000DB59D8B01200AAD7000E0001E16F47D098
:10139000E1510A0D020EF326000EF422600EF32432
:1013A000D96E000EF420DA6EDECFD9F0DDCFDAF0A0
:1013B000D9C0D9FFDAC0DAFFDF50DB6FE1510A0D87
:1013C000040EF326000EF422600EF324D96E000EF4
:1013D000F420DA6EDF50DC6F010EDD6FDC2B02D003
:1013E000D890DD37DC2FFCD70001DD51DB15DE6F37
:1013F000E1510A0D020EF326000EF422600EF324D2
:10140000D96E000EF420DA6EDECFDFF0DDCFE0F033
:10141000DFC0D9FFE0C0DAFFDE51DF1AE12BE15176
:10142000D96FDA6B3750D95DDA51800ADB6F3850EB
:10143000800ADB59D8B01200ABD7000E0001DD6F77
:101440003ED0DD510A0D060EF326000EF422600E8A
:10145000F324D96E000EF420DA6EDD510A0D090E68
:10146000F326000EF422600EF324E16E000EF42049
:10147000E26EE750D96FDD510A0D070EF326000E1C
:10148000F422600EF324E16E000EF420E26EE6CF4B
:10149000DAF0E5CFDBF0DAC0E1FFDBC0E2FFE750D6
:1014A000DC6FD92B02D0D890DC33D92FFCD70001C8
:1014B000DCA102D0010E01D0000EDF6EDD2BDD516C
:1014C000D96FDA6B3750D95DDA51800ADB6F38504B
:1014D000800ADB59D8B01200B4D7000E0001E16FCA
:1014E000000EE26F000EE36F000EE46FDD51DE11BF
:1014F000DF11E011D8B42AD0010EE56F06D0D890E4
:10150000DD37DE37DF37E037E52BE0AFF8D7D890AF
:10151000E137E237E337E437DD51D95DDE51DA599F
:10152000DF51DB59E051DC59D8A009D0DD51D95F3A
:10153000DE51DA5BDF51DB5BE051DC5BE181D890AF
:10154000E033DF33DE33DD33E52FE1D7E1C0D9F01F
:10155000E2C0DAF0E3C0DBF0E4C0DCF01200E6C089
:1015600034F0E7C035F034503510D8A4000E366E94
:10157000000E406E000E31EC0CF0AB94AB92000EFE
:10158000AE6EAC9CAC98AC94AB9CB89AB898B8963C
:10159000000E0001D96F240EDA6FF40EDB6F000E1F
:1015A000DC6FE8C0DDF0E9C0DEF0DF6BE06B6DEC16
:1015B0000AF0070E06D00001D890DC33DB33DA33B3
:1015C000D933E82EF8D7D905AF6EEA51D8B4120056
:1015D000D08EF28EF28C9E9A9F8A9D8A1200E3C072
:1015E000D9FFE4C0DAFF440EDF6E000120EE01F007
:1015F000E351D926E451DA22D951300FDF6E20EEC3
:1016000002F0E351D926E451DA22000EDF6EDF51F9
:10161000D8B406D0E5C0D9FFE6C0DAFF430E05D046
:10162000E5C0D9FFE6C0DAFF4F0EDF6E20EE01F015
:10163000E551D926E651DA22000EDF6E120048C0CD
:1016400008F049C009F008500910D8A4000E0A6E2D
:1016500088EC07F042C008F043C009F008500910B8
:10166000D8A4000E0A6E88EC07F0220E086E080E51
:10167000096E08500910D8A4000E0A6EA4C10BF020
:101680000C6A88EC07F046C008F047C009F0085023
:101690000910D8A4000E0A6E88EC07F01200000EA4
:1016A0000001DF6F000EDE6FDB51DC11D8B41CD0FF
:1016B000010EDD6F04D0D890DB37DC37DD2BDCAFDB
:1016C000FAD7D890DE37DF37DB51D95DDC51DA59F4
:1016D000D8A005D0DB51D95FDC51DA5BDE81D89030
:1016E000DC33DB33DD2FEDD7DEC0D9F0DFC0DAF03D
:1016F0001200000E076E000E066E03500410D8B4E0
:101700001CD0010E056E04D0D89003360436052A8D
:1017100004AEFAD7D890063607360350015C045061
:101720000258D8A005D00350015E0450025A06802A
:10173000D89004320332052EEDD706C001F007C061
:1017400002F012007C0EF66E190EF76E000EF86EA7
:1017500000EE42F010EE08F00900F5CFEEFFE55084
:10176000E150FAE101EE00F0A60EEE6AE806FDE1B6
:1017700000EE60F0640EEE6AE806FDE100EE28F08F
:101780001A0EEE6AE806FDE14A904A9200011DEF4A
:1017900004F005D00001D94BDA2BDB4BDC2BD9C090
:1017A000D9FFDAC0DAFFDF500001DD6FDBC0F6FFE2
:1017B000DCC0F7FFF86A0800F5500008DD25DE6F91
:1017C000DE51D8A407D0D9C0D9FFDAC0DAFFDF5084
:1017D000D8A4E0D7DE51D96FDA6BD9BFDA0712008F
:1017E0000001D96F0001D951D8B40AD0CAB405D0CC
:1017F000BD50F00B0C09BD6ECA84D9C0BEFF1200EB
:10180000BD90BD92BD94BD96CA94829412000B0EF9
:101810002E6E010E2F6E3E0E306E010E316E710E69
:10182000326E010E336E20EE2EF000EED9F0050E72
:10183000DBCFEBFFE806FCE212000001D96F000EDF
:101840000001DA6F05D0DA2B060EE82EFED700D0A5
:10185000ACB204D0C70E0001DA65F5D7D9C0ADFF30
:1018600012000001D96F0001D951D8B406D0949E5E
:10187000948CAC8AAB88AB8E1200949E949CAC9AEC
:10188000AB98AB9E1200000EAFEC0CF0D59CD59A35
:10189000D598D596D550F80B0209D56ED08EF28E1C
:1018A000F28CF294F194F28A12000001E26F0001CE
:1018B000E251D8A402D0010EE26FE251DFEC06F053
:1018C000C4EC09F0010EAFEC0CF01200016E000E3A
:1018D000026E05D0022A060EE82EFED700D0ACB26A
:1018E00003D0C70E0264F6D701C0ADFF1200000E90
:1018F000A5EC0CF0CD8ECD9CCF0ECD16CD96CD9215
:10190000D08EF28EF28C9E909F909D801200CB68BC
:10191000CA94CA50FC0B0109CA6ECA96CA98CA9AE0
:10192000CA9C1F0EBE6ECF0EBD161200000E926E28
:10193000000E806E000E936E000E816E000E946E8F
:10194000000E826E0F0EC16E12000001D96F0001F1
:10195000D951D8B402D0CD801200CD901200000130
:10196000D96F0001D951D8B402D0D58E1200D59EBE
:1019700012000001D96FD9C03AF012001A081E08EF
:0419800033083508EB
:020000040020DA
:08000000FFFFFFFFFFFFFFFF00
:020000040030CA
:0E000000040C1F1EFF8080FF0FC00FE00F409A
:00000001FF
