:040000006AEF00F0B3
:060008004482EEED08F059
:100018004480D8CF28F0E8CF29F0E0CF2AF0FACFF3
:100028002BF0FBCF2CF0E9CF2DF0EACF2EF0E1CF6B
:100038002FF0E2CF30F0D9CF31F0DACF32F0F3CF72
:1000480033F0F4CF34F0F6CF35F0F7CF36F0F8CF01
:1000580037F0F5CF38F044C039F045C03AF046C023
:100068003BF047C03CF09EAA05D005EC0BF01CEC19
:1000780004F09E9A3CC047F03BC046F03AC045F0B9
:1000880039C044F038C0F5FF37C0F8FF36C0F7FF75
:1000980035C0F6FF34C0F4FF33C0F3FF32C0DAFFD7
:1000A80031C0D9FF30C0E2FF2FC0E1FF2EC0EAFF08
:1000B8002DC0E9FF2CC0FBFF2BC0FAFF2AC0E0FFD0
:1000C80029C0E8FF28C0D8FF44901000E2EF09F0EB
:100800000001001000000100103031323334353661
:10081000373839616263646566005B415D005B4D3A
:100820005D00257800450049004C005000520055FD
:1008300000240026003A0000276EB5D0260E2718A7
:10084000D8A410D0000E01010A6F000E3D6F000EFB
:10085000706F000EA36F000E0001A06F010E01016A
:10086000A56F1200000E0101A56F12003A0E2718A5
:10087000D8A40DD0020EA56F0A51010D000EF3246D
:10088000D96E010EF420DA6E000EDF6E12000A51EE
:10089000010D000EF324D96E010EF420DA6E27C08C
:1008A000DFFF0A2B0A0E0A651200000E0A6F120003
:1008B0003A0E2718D8A40DD0030EA56F3D51010D97
:1008C0000B0EF324D96E010EF420DA6E000EDF6EEB
:1008D00012003D51010D0B0EF324D96E010EF420D0
:1008E000DA6E27C0DFFF3D2B320E3D651200000E91
:1008F0003D6F12003A0E2718D8A40DD0040EA56F34
:100900007051010D3E0EF324D96E010EF420DA6E03
:10091000000EDF6E12007051010D3E0EF324D96EF1
:10092000010EF420DA6E27C0DFFF702B320E7065E7
:100930001200000E706F12003A0E2718D8A40DD0C6
:10094000050EA56FA351010D710EF324D96E010E92
:10095000F420DA6E000EDF6E1200A351010D710E4D
:10096000F324D96E010EF420DA6E27C0DFFFA32B2B
:10097000320EA3651200000EA36F1200240E27187A
:10098000D8A409D0B2EC09F0000E0101A56F010E48
:100990000001A06F12002750D00F0101A46F1200B8
:1009A000000EA56F12000101A551000AD8B446D768
:1009B000010AD8B45BD7030AD8B47AD7010AD8B4ED
:1009C00099D7070AD8B4B8D7010AD8B4D7D7E8D787
:1009D000AB0E0001AC6F000EAD6F8BD0250EB219BF
:1009E000D8B404D0B251E5EC0AF083D0000E000177
:1009F000AB6F04D0B251E5EC0AF07BD0A8C0F6FF93
:100A0000A9C0F7FFAAC0F8FF010E0001A827000E39
:100A1000A923AA23F8BA03D00800F55005D0F6CFD1
:100A2000E9FFF7CFEAFFEF500001B26FB251000AC1
:100A3000D8B41200780AD8A4DDD7ACC0D9FFADC0B5
:100A4000DAFFDECFAFF0DDCFB0F0020E0001AC2751
:100A5000000EAD23010EB26F14D0B251020D010E83
:100A6000F324F66E080EF420F76EF86A000EF822F2
:100A70000900F550AF5D0900F550B059D8A005D078
:100A8000B22B040EB219D8A4E8D7B2C0B1F02CD062
:100A9000AFC0A1F0B0C0A2F0B151020D010EF3241D
:100AA000F66E080EF420F76EF86A000EF8220900C0
:100AB000F5CFA3F00A00F5CFA4F010EC0AF0000186
:100AC000A1510F0BAE6FAE51010D090EF324F66E5E
:100AD000080EF420F76EF86A000EF8220800F5CF31
:100AE000B2F0B251E5EC0AF00001B107B129D8A487
:100AF000CFD7A8C0F6FFA9C0F7FFAAC0F8FF010E24
:100B00000001A827000EA923AA23F8BA03D00800E1
:100B1000F55005D0F6CFE9FFF7CFEAFFEF5000011F
:100B2000B26FB251D8B4120059D7C5EC0AF02B0EEF
:100B30000001AF6F080EB06F250EB26F800EB16F5F
:100B4000010EB36F99EC08F0010EA1EC0AF0B3ECC2
:100B50000AF0E1EC06F0DEEC0AF0050E0001C16FD0
:100B60000F0EC06FF10EE82EFED7C02FFCD7C12F9D
:100B7000FAD7270E0001B36F080EB46F270EB56FBA
:100B8000080EB66F5EEC07F0010ED4EC0AF0000E12
:100B900000019E6F00019E51D8B403D0FF006AEFA0
:100BA00000F00001A051D8B45DD0000EA06F8AEC17
:100BB0000AF020EE92F0050EEBCFDBFFE806FCE238
:100BC00094C0A1F095C0A2F0290E0001A36F080EF9
:100BD000A46F63EC0AF00001A151A211D8A403D0C4
:100BE000F3EC0AF03FD094C0A1F095C0A2F02F0E14
:100BF0000001A36F080EA46F63EC0AF00001A1517D
:100C0000A211D8A403D0DEEC0AF02CD094C0A1F03D
:100C100095C0A2F0270E0001A36F080EA46F63EC2D
:100C20000AF00001A151A211D8B41CD094C0A1F0C7
:100C300095C0A2F02D0EA36F080EA46F63EC0AF00E
:100C40000001A151A211D8A403D0010E9E6F0AD0B9
:100C5000250EB36F080EB46F2F0EB56F080EB66F6A
:100C60005EEC07F000019F51D8B494D7000E9F6F3F
:100C70003FEC09F035EC08F08DD71D0E206E000E0C
:100C8000216E85D0250E2618D8B404D0265000EC4D
:100C90000BF07DD0000E1F6E04D0265000EC0BF040
:100CA00076D01AC0F6FF1BC0F7FF1CC0F8FF010E7C
:100CB0001A26000E1B221C22F8BA03D00800F55099
:100CC00005D0F6CFE9FFF7CFEAFFEF50266E2650AA
:100CD000000AD8B41200780AD8A4DFD720C0D9FF00
:100CE00021C0DAFFDECF23F0DDCF24F0020E202674
:100CF000000E2122010E266E14D02650020D010E88
:100D0000F324F66E080EF420F76EF86A000EF8224F
:100D10000900F550235C0900F5502458D8A005D0EF
:100D2000262A040E2618D8A4E8D726C025F02BD0F2
:100D300023C013F024C014F02550020D010EF3243B
:100D4000F66E080EF420F76EF86A000EF82209001D
:100D5000F5CF15F00A00F5CF16F03AEC0AF0135073
:100D60000F0B226E2250010D090EF324F66E080EB1
:100D7000F420F76EF86A000EF8220800F5CF26F08E
:100D8000265000EC0BF025062528D8A4D1D71AC090
:100D9000F6FF1BC0F7FF1CC0F8FF010E1A26000E5D
:100DA0001B221C22F8BA03D00800F55005D0F6CF5C
:100DB000E9FFF7CFEAFFEF50266E2650D8B41200B5
:100DC00061D73F0E93163F0E9312000E0001A16FE4
:100DD000040EA16501D01200A1510A0D600EF3248A
:100DE000D96E000EF420DA6EA1C0DFFFA1510A0D0A
:100DF000010EF326000EF422600EF324D96E000ECD
:100E0000F420DA6E010EDF6EA1510A0D020EF326F8
:100E1000000EF422600EF324D96E000EF420DA6E78
:100E2000810EDE6E0F0EDD6EA1510A0D040EF3264B
:100E3000000EF422600EF324D96E000EF420DA6E58
:100E4000070EDF6EA1510A0D060EF326000EF422E6
:100E5000600EF324D96E000EF420DA6E000EDF6E01
:100E6000A1510A0D050EF326000EF422600EF324A4
:100E7000D96E000EF420DA6E000EDF6EA1510A0D5D
:100E8000070EF326000EF422600EF324D96E000E36
:100E9000F420DA6E810EDE6E0F0EDD6EA1510A0DAA
:100EA000090EF326000EF422600EF324D96E000E14
:100EB000F420DA6EA1C0DFFFA12B8AD741C0A8F0D1
:100EC00042C0A9F00001A851A911D8A4000EAA6F30
:100ED000E8EC04F0C5C0A8F0C6C0A9F00001A85114
:100EE000A911D8A4000EAA6FE8EC04F0C2C0A8F0C3
:100EF000C3C0A9F0C4C0AAF0E8EC04F0350E0001AC
:100F0000A86F080EA96FA851A911D8A4000EAA6F46
:100F1000E8EC04F0B3C0A8F0B4C0A9F00001AA6BDB
:100F2000A851A911D8B405D0070EB46501D001D0DD
:100F3000AA8BE8EC04F0350E0001A86F080EA96F2B
:100F4000A851A911D8A4000EAA6FE8EC04F0B5C00E
:100F5000A8F0B6C0A9F00001AA6BA851A911D8B495
:100F600005D0070EB66501D001D0AA8BE8EC04F0DD
:100F70003FC0A8F040C0A9F00001A851A911D8A411
:100F8000000EAA6FE8EC04F0060E0001B76F300EF9
:100F9000E82EFED7B72FFCD700F01200000E00019C
:100FA000AA6FA8AF0AD0A81FA71FA61FA56D000E85
:100FB000A623A723A823010EAA6FA4AF0AD0A41FBB
:100FC000A31FA21FA16D000EA223A323A423010E21
:100FD000AA1B000EAB6F000EAC6F000EAD6F000EC3
:100FE000AE6FA551A611A711A811D8B42AD0010E31
:100FF000A96F06D0D890A537A637A737A837A92B51
:10100000A8AFF8D7D890AB37AC37AD37AE37A551CE
:10101000A15DA651A259A751A359A851A459D8A07E
:1010200009D0A551A15FA651A25BA751A35BA8510E
:10103000A45BAB81D890A833A733A633A533A92FDF
:10104000E1D7AA51D8B408D0AE1FAD1FAC1FAB6D0D
:10105000000EAC23AD23AE23ABC0A1F0ACC0A2F018
:10106000ADC0A3F0AEC0A4F01200000E0001BF6F2F
:10107000040EBF6501D01200BF510A0D060EF32603
:10108000000EF422600EF324D96E000EF420DA6E06
:10109000BF510A0D050EF326000EF422600EF32454
:1010A000E16E000EF420E26EDE50E618D8B43FD0B8
:1010B000BF510A0D600EF324D96E000EF420DA6ED3
:1010C00000EEA1F0090EDBCFEBFFE806FCE2BA0E62
:1010D000AB6F000EAC6FBD0EAD6F000EAE6F82EC4D
:1010E00009F0BA0E0001B36F000EB46FBD0EB56FFC
:1010F000000EB66F5EEC07F00001BF510A0D060E40
:10110000F326000EF422600EF324D96E000EF420B4
:10111000DA6EBF510A0D050EF326000EF422600EA2
:10112000F324E16E000EF420E26EDFCFE7FFBF2B69
:101130009FD7949E948CAFC0C2F0B0C0C3F00001A2
:10114000C251C311D8A4000EC46F000EA06F000ED0
:10115000A1EC0AF0AC9CAC98AC94AB9CB89AB89853
:10116000B896AB94AB92000EAE6EB1C0A5F0B2C013
:10117000A6F00001A76BA86B000EA16F240EA26F52
:10118000F40EA36F000EA46FCEEC07F0A1C0B4F074
:10119000A2C0B5F0A3C0B6F0A4C0B7F0B4C0A1F02F
:1011A000B5C0A2F0B6C0A3F0B7C0A4F0400E0001D5
:1011B000A56F000EA66F000EA76F000EA86FCEECF5
:1011C00007F00001A105AF6EB351D8B41200D08E64
:1011D000F28EF28C9E9A9F9A9D8A12000600FACF98
:1011E00001F0FBCF02F0E9CF03F0EACF04F0E1CF4A
:1011F00005F0E2CF06F0D9CF07F0DACF08F0F3CF51
:1012000009F0F4CF0AF0F6CF0BF0F7CF0CF0F8CFDF
:101210000DF0F5CF0EF044C00FF045C010F046C001
:1012200011F047C012F0F2A404D0010E00019F6F2C
:10123000F29412C047F011C046F010C045F00FC044
:1012400044F00EC0F5FF0DC0F8FF0CC0F7FF0BC057
:10125000F6FF0AC0F4FF09C0F3FF08C0DAFF07C0B9
:10126000D9FF06C0E2FF05C0E1FF04C0EAFF03C0EA
:10127000E9FF02C0FBFF01C0FAFF44921100000E1B
:101280000001A56F040EA56501D01200A5510A0D3D
:10129000060EF326000EF422600EF324D96E000E23
:1012A000F420DA6EA5510A0D090EF326000EF42281
:1012B000600EF324E16E000EF420E26EE750A16FA1
:1012C000A5510A0D070EF326000EF422600EF3243A
:1012D000E16E000EF420E26EE6CFA2F0E5CFA3F0BF
:1012E000A2C0E1FFA3C0E2FFE750A46FA12B02D090
:1012F000D890A433A12FFCD70001A451010BDF6EBD
:10130000A52BC0D7ABC0D9FFACC0DAFF500EDF6E43
:10131000000120EE01F0AB51D926AC51DA22A151E7
:10132000300FDF6E20EE02F0AB51D926AC51DA223D
:10133000000EDF6EA751D8B406D0ADC0D9FFAEC045
:10134000DAFF4F0E05D0ADC0D9FFAEC0DAFF430EB5
:10135000DF6E20EE01F0AD51D926AE51DA22000E3B
:10136000DF6E120041C01AF042C01BF01A501B1071
:10137000D8A4000E1C6E3DEC06F03DC01AF03EC035
:101380001BF01A501B10D8A4000E1C6E3DEC06F08A
:10139000220E1A6E080E1B6E1A501B10D8A4000ED7
:1013A0001C6EA4C11DF01E6A3DEC06F03FC01AF091
:1013B00040C01BF01A501B10D8A4000E1C6E3DEC50
:1013C00006F01200180EF66E160EF76E000EF86E8E
:1013D0000900F5CFC5F00900F5CFC6F0120EF66E84
:1013E000160EF76E000EF86E00EE3DF010EE06F0F1
:1013F0000900F5CFEEFFE550E150FAE101EE00F013
:10140000A60EEE6AE806FDE100EE60F0410EEE6A1F
:10141000E806FDE1436A44904492000195EF05F02F
:10142000000E0001A66F000EA56FA351A411D8B441
:101430001CD0010EA76F04D0D890A337A437A72BD8
:10144000A4AFFAD7D890A537A637A351A15DA45170
:10145000A259D8A005D0A351A15FA451A25BA58138
:10146000D890A433A333A72FEDD7A5C0A1F0A6C071
:10147000A2F01200000E186E000E176E1550161016
:10148000D8B41CD0010E196E04D0D890153616367B
:10149000192A16AEFAD7D890173618361550135C9D
:1014A00016501458D8A005D01550135E1650145A73
:1014B0001780D89016321532192EEDD717C013F0B9
:1014C00018C014F0120005D00001A14BA22BA34BB1
:1014D000A42BA1C0D9FFA2C0DAFFDF500001A56F85
:1014E000A3C0F6FFA4C0F7FFF86A0800F550000893
:1014F000A525A66FA651D8A407D0A1C0D9FFA2C028
:10150000DAFFDF50D8A4E0D7A651A16FA26BA1BF2C
:10151000A20712000B0E0001986F010E996F3E0E8C
:101520009A6F010E9B6F710E9C6F010E9D6F20EEE6
:1015300098F000EEA1F0050EDBCFEBFFE806FCE231
:1015400012000001A16F0001A151D8B406D0949EF1
:10155000948CAC8AAB88AB8E1200949E949CAC9A0F
:10156000AB98AB9E1200000ED4EC0AF0D59CD59A35
:10157000D598D596D550F80B0209D56ED08EF28E3F
:10158000F28CF294F184F28A1200000E926E000E38
:10159000806E000E936E000E816E000E946E000E33
:1015A000826E0F0EC16E12000001A16F0001A151E9
:1015B000D8B402D0D58E1200D59E120062C0D9FFD9
:1015C00063C0DAFF3F0EDF1612000001A26F0001B8
:1015D000A251ECEC0AF012000001A16FACA2FED700
:1015E000A1C0ADFF120062C0D9FF63C0DAFFC00E18
:1015F000DF121200136EACA2FED713C0ADFF1200B3
:10160000146E1450FAEC0AF01200AB50AB50AE500E
:0A16100012001A08310833081E0802
:020000040020DA
:08000000FFFFFFFFFFFFFFFF00
:020000040030CA
:0E000000040C1F1EFF8080FF0FC00FE00F409A
:00000001FF
