:040000006AEF00F0B3
:060008004782B4ED07F091
:100018004780D8CF2BF0E8CF2CF0E0CF2DF0FACFE7
:100028002EF0FBCF2FF0E9CF30F0EACF31F0E1CF5F
:1000380032F0E2CF33F0D9CF34F0DACF35F0F3CF66
:1000480036F0F4CF37F0F6CF38F0F7CF39F0F8CFF5
:100058003AF0F5CF3BF047C03CF048C03DF049C00E
:100068003EF04AC03FF09EAA05D00CEC0AF01CEC0A
:1000780004F09E9A3FC04AF03EC049F03DC048F0A7
:100088003CC047F03BC0F5FF3AC0F8FF39C0F7FF66
:1000980038C0F6FF37C0F4FF36C0F3FF35C0DAFFCB
:1000A80034C0D9FF33C0E2FF32C0E1FF31C0EAFFFC
:1000B80030C0E9FF2FC0FBFF2EC0FAFF2DC0E0FFC4
:1000C8002CC0E8FF2BC0D8FF47901000E5EF08F0E0
:100800000001001000000100103031323334353661
:1008100037383961626364656600537461727400CD
:100820005B415D005B4D5D0025780049002400269A
:10083000003A004F005000002A6EB5D0260E2A184C
:10084000D8A410D0000E01010A6F000E3D6F000EFB
:10085000706F000EA36F000E00019F6F010E01016B
:10086000A56F1200000E0101A56F12003A0E2A18A2
:10087000D8A40DD0020EA56F0A51010D000EF3246D
:10088000D96E010EF420DA6E000EDF6E12000A51EE
:10089000010D000EF324D96E010EF420DA6E2AC089
:1008A000DFFF0A2B0A0E0A651200000E0A6F120003
:1008B0003A0E2A18D8A40DD0030EA56F3D51010D94
:1008C0000B0EF324D96E010EF420DA6E000EDF6EEB
:1008D00012003D51010D0B0EF324D96E010EF420D0
:1008E000DA6E2AC0DFFF3D2B320E3D651200000E8E
:1008F0003D6F12003A0E2A18D8A40DD0040EA56F31
:100900007051010D3E0EF324D96E010EF420DA6E03
:10091000000EDF6E12007051010D3E0EF324D96EF1
:10092000010EF420DA6E2AC0DFFF702B320E7065E4
:100930001200000E706F12003A0E2A18D8A40DD0C3
:10094000050EA56FA351010D710EF324D96E010E92
:10095000F420DA6E000EDF6E1200A351010D710E4D
:10096000F324D96E010EF420DA6E2AC0DFFFA32B28
:10097000320EA3651200000EA36F1200240E2A1877
:10098000D8A409D015EC09F0000E0101A56F010EE5
:1009900000019F6F12002A50D00F0101A46F1200B6
:1009A000000EA56F12000101A551000AD8B446D768
:1009B000010AD8B45BD7030AD8B47AD7010AD8B4ED
:1009C00099D7070AD8B4B8D7010AD8B4D7D7E8D787
:1009D000AA0E0001AE6F000EAF6F7ED0250EB419C7
:1009E000D8B404D0B451F3EC09F076D0000E000175
:1009F000AD6F04D0B451F3EC09F06ED0A7C0AAF0EB
:100A0000A8C0ABF0A9C0ACF00001A72B000EA82332
:100A1000A923AAC0F6FFABC0F7FFACC0F8FF0800DF
:100A2000F5CFB4F0B451000AD8B41200780AD8A4B3
:100A3000E1D7AEC0D9FFAFC0DAFFDECFB1F0DDCF76
:100A4000B2F0020E0001AE27000EAF23010EB46F0C
:100A500011D0B451020D010EF324F66E080EF420ED
:100A6000F76E0900F550B15D0900F550B259D8A0F4
:100A700005D0B42B040EB419D8A4EBD7B4C0B3F08E
:100A800026D0B1C0A0F0B2C0A1F0B351020D010E4A
:100A9000F324F66E080EF420F76E0900F5CFA2F0ED
:100AA0000A00F5CFA3F045EC09F00001A0510F0BAF
:100AB000B06FB051010D090EF324F66E080EF4204C
:100AC000F76E0800F5CFB4F0B451F3EC09F0000173
:100AD000B307B329D8A4D5D7A7C0AAF0A8C0ABF054
:100AE000A9C0ACF00001A72B000EA823A923AAC01F
:100AF000F6FFABC0F7FFACC0F8FF0800F5CFB4F0CD
:100B0000B451D8B412006AD71D0E236E000E246EA5
:100B100079D0250E2918D8B404D0295007EC0AF052
:100B200071D0000E226E04D0295007EC0AF06AD072
:100B30001AC01FF01BC020F01CC021F01A2A000EA2
:100B40001B221C221FC0F6FF20C0F7FF21C0F8FFA8
:100B50000800F5CF29F02950000AD8B41200780A0D
:100B6000D8A4E2D723C0D9FF24C0DAFFDECF26F015
:100B7000DDCF27F0020E2326000E2422010E296E5F
:100B800011D02950020D010EF324F66E080EF42048
:100B9000F76E0900F550265C0900F5502758D8A0DB
:100BA00005D0292A040E2918D8A4EBD729C028F08B
:100BB00025D026C013F027C014F02850020D010ED6
:100BC000F324F66E080EF420F76E0900F5CF15F049
:100BD0000A00F5CF16F06FEC09F013500F0B256EDD
:100BE0002550010D090EF324F66E080EF420F76E61
:100BF0000800F5CF29F0295007EC0AF0280628282C
:100C0000D8A4D7D71AC01FF01BC020F01CC021F0F9
:100C10001A2A000E1B221C221FC0F6FF20C0F7FF5D
:100C200021C0F8FF0800F5CF29F02950D8B41200F0
:100C300070D73F0E93163F0E9312000E0001A06F67
:100C4000040EA06501D01200A0510A0D600EF3241D
:100C5000D96E000EF420DA6EA0C0DFFFA0510A0D9D
:100C6000010EF326000EF422600EF324D96E000E5E
:100C7000F420DA6E010EDF6EA0510A0D020EF3268B
:100C8000000EF422600EF324D96E000EF420DA6E0A
:100C9000810EDE6E0F0EDD6EA0510A0D040EF326DE
:100CA000000EF422600EF324D96E000EF420DA6EEA
:100CB000070EDF6EA0510A0D060EF326000EF42279
:100CC000600EF324D96E000EF420DA6E000EDF6E93
:100CD000A0510A0D050EF326000EF422600EF32437
:100CE000D96E000EF420DA6E000EDF6EA0510A0DF0
:100CF000070EF326000EF422600EF324D96E000EC8
:100D0000F420DA6E810EDE6E0F0EDD6EA0510A0D3C
:100D1000090EF326000EF422600EF324D96E000EA5
:100D2000F420DA6EA0C0DFFFA02B8AD7000E0001EE
:100D3000A96FA7AF0AD0A71FA61FA51FA46D000EFD
:100D4000A523A623A723010EA96FA3AF0AD0A31F33
:100D5000A21FA11FA06D000EA123A223A323010E99
:100D6000A91B000EAA6F000EAB6F000EAC6F000E39
:100D7000AD6FA451A511A611A711D8B42AD0010EA8
:100D8000A86F06D0D890A437A537A637A737A82BC9
:100D9000A7AFF8D7D890AA37AB37AC37AD37A45147
:100DA000A05DA551A159A651A259A751A359D8A0F8
:100DB00009D0A451A05FA551A15BA651A25BA75188
:100DC000A35BAA81D890A733A633A533A433A82F59
:100DD000E1D7A951D8B408D0AD1FAC1FAB1FAA6D85
:100DE000000EAB23AC23AD23AAC0A0F0ABC0A1F092
:100DF000ACC0A2F0ADC0A3F0120044C0A7F045C043
:100E0000A8F00001A751A811D8A4000EA96FE8EC22
:100E100004F0C2C0A7F0C3C0A8F00001A751A811F8
:100E2000D8A4000EA96FE8EC04F0BFC0A7F0C0C0C2
:100E3000A8F0C1C0A9F0E8EC04F0310E0001A76FE2
:100E4000080EA86FA751A811D8A4000EA96FE8EC4E
:100E500004F0B5C0A7F0B6C0A8F00001A751A811D2
:100E6000D8A4000EA96FE8EC04F0310E0001A76FC2
:100E7000080EA86FA751A811D8A4000EA96FE8EC1E
:100E800004F0B7C0A7F0B8C0A8F00001A751A8119E
:100E9000D8A4000EA96FE8EC04F042C0A7F043C04C
:100EA000A8F00001A751A811D8A4000EA96FE8EC82
:100EB00004F0060E0001B96F300EE82EFED7B92FF0
:100EC000FCD700F01200949E948CAEC0BFF0AFC06F
:100ED000C0F00001BF51C011D8A4000EC16F000EB8
:100EE0009F6F000EAFEC09F0AC9CAC98AC94AB9C3F
:100EF000B89AB898B896B0C0A4F0B1C0A5F00001F7
:100F0000A66BA76B000EA06F240EA16FF40EA26F4C
:100F1000000EA36F96EC06F0A0C0B3F0A1C0B4F031
:100F2000A2C0B5F0A3C0B6F0B3C0A0F0B4C0A1F0A9
:100F3000B5C0A2F0B6C0A3F0400E0001A46F000E31
:100F4000A56F000EA66F000EA76F96EC06F00001CD
:100F5000A005AF6EB251D8B41200D08EF28EF28CD2
:100F60009E9A9F9A9D8A12000600FACF01F0FBCF4D
:100F700002F0E9CF03F0EACF04F0E1CF05F0E2CFD1
:100F800006F0D9CF07F0DACF08F0F3CF09F0F4CFAD
:100F90000AF0F6CF0BF0F7CF0CF0F8CF0DF0F5CF4D
:100FA0000EF047C00FF048C010F049C011F04AC021
:100FB00012F0F2A404D0010E00019E6FF29412C050
:100FC0004AF011C049F010C048F00FC047F00EC001
:100FD000F5FF0DC0F8FF0CC0F7FF0BC0F6FF0AC00D
:100FE000F4FF09C0F3FF08C0DAFF07C0D9FF06C04D
:100FF000E2FF05C0E1FF04C0EAFF03C0E9FF02C051
:10100000FBFF01C0FAFF47921100D3EC09F0350E47
:101010000001AE6F080EAF6F250EB16F800EB06F7E
:10102000010EB26F63EC07F0010EAFEC09F0C1ECFA
:1010300009F019EC06F0ECEC09F0050E0001BE6FAA
:101040000F0EBD6FF10EE82EFED7BD2FFCD7BE2FC1
:10105000FAD72B0E0001B56F080EB66F1A0EB76FD8
:10106000080EB86FFDEC06F0010EE2EC09F000018D
:101070009F51D8B40BD0000E9F6F98EC09F020EE72
:1010800092F0050EEBCFDBFFE806FCE200019E517B
:10109000D8B4EDD7000E9E6F9BEC08F051EC08F031
:1010A000E6D7000E0001BC6F040EBC6501D0120033
:1010B000BC510A0D060EF326000EF422600EF32436
:1010C000D96E000EF420DA6EBC510A0D050EF3261F
:1010D000000EF422600EF324E16E000EF420E26EA6
:1010E000DE50E618D8B425D0350EB56F080EB66FB1
:1010F000330EB76F080EB86FFDEC06F00001BC515F
:101100000A0D060EF326000EF422600EF324D96EAB
:10111000000EF420DA6EBC510A0D050EF326000E07
:10112000F422600EF324E16E000EF420E26EDFCFB5
:10113000E7FFBC2BB9D7000E0001A46F040EA46515
:1011400001D03CD0A4510A0D060EF326000EF42265
:10115000600EF324D96E000EF420DA6EA4510A0D4D
:10116000090EF326000EF422600EF324E16E000E49
:10117000F420E26EE750A06FA4510A0D070EF3268B
:10118000000EF422600EF324E16E000EF420E26EF5
:10119000E6CFA1F0E5CFA2F0A1C0E1FFA2C0E2FF3F
:1011A000E750A36FA02B02D0D890A333A02FFCD779
:1011B0000001A351010BDF6EA42BC0D76651D8B438
:1011C00002D08A8E12008A9E1200260EF66E140E2F
:1011D000F76E000EF86E0900F5CFC2F00900F5CFEA
:1011E000C3F0200EF66E140EF76E000EF86E00EED1
:1011F00040F010EE06F00900F5CFEEFFE550E150AB
:10120000FAE101EE00F0A60EEE6AE806FDE100EE5E
:1012100060F0400EEE6AE806FDE1466A47904792AC
:10122000000EF86E000105EF08F044C01AF045C04A
:101230001BF01A501B10D8A4000E1C6E84EC05F095
:1012400040C01AF041C01BF01A501B10D8A4000E69
:101250001C6E84EC05F0280E1A6E080E1B6E1A50D8
:101260001B10D8A4000E1C6EA4C11DF01E6A84ECD5
:1012700005F042C01AF043C01BF01A501B10D8A44E
:10128000000E1C6E84EC05F01200000E0001A56F2C
:10129000000EA46FA251A311D8B41CD0010EA66FEA
:1012A00004D0D890A237A337A62BA3AFFAD7D890F3
:1012B000A437A537A251A05DA351A159D8A005D04C
:1012C000A251A05FA351A15BA481D890A333A23304
:1012D000A62FEDD7A4C0A0F0A5C0A1F01200000E6B
:1012E000186E000E176E15501610D8B41CD0010ED3
:1012F000196E04D0D89015361636192A16AEFAD7BC
:10130000D890173618361550135C16501458D8A0BC
:1013100005D01550135E1650145A1780D890163207
:101320001532192EEDD717C013F018C014F01200A3
:101330000B0E0001986F010E996F3E0E9A6F010E11
:101340009B6F710E9C6F010E9D6F20EE98F000EE6A
:10135000A0F0050EDBCFEBFFE806FCE21200000177
:10136000A06F0001A051D8B406D0949E948CAC8A92
:10137000AB88AB8E1200949E949CAC9AAB98AB9EBB
:101380001200000EE2EC09F0D59CD59AD598D596BE
:10139000D550F80B0209D56ED08EF28EF28CF294F5
:1013A000F184F28A1200000E926E000E806E000E22
:1013B000936E000E816E000E946E000E826E0F0E04
:1013C000C16E12000001A06F0001A051D8B402D07C
:1013D000D58E1200D59E120062C0D9FF63C0DAFF1D
:1013E0003F0EDF1612000001A16F0001A151FAECBF
:1013F00009F012000001A06FACA2FED7A0C0ADFFA3
:101400001200136EACA2FED713C0ADFF1200146E13
:10141000145001EC0AF01200AB50AB50AE50120069
:0814200020082D082F08240804
:020000040020DA
:08000000FFFFFFFFFFFFFFFF00
:020000040030CA
:0E000000040C1F1EFF8080FF0FC00FE00F409A
:00000001FF
