:0400000076EF00F0A7
:0600080044828DED0AF0B8
:100018004480D8CF60F0E8CF61F0E0CF62F0FACF4B
:1000280063F0FBCF64F0E9CF65F0EACF66F0E1CF8B
:1000380067F0E2CF68F0D9CF69F0DACF6AF0F3CF92
:100048006BF0F4CF6CF0F6CF6DF0F7CF6EF0F8CF21
:100058006FF0F5CF70F044C071F045C072F046C043
:1000680073F047C074F0F2A403D0F294010E396E15
:100078009EA00CD05E0ECF6E000ECE6E630E3B605F
:1000880002D03B2A02D0010E386E9E9074C047F011
:1000980073C046F072C045F071C044F070C0F5FFFF
:1000A8006FC0F8FF6EC0F7FF6DC0F6FF6CC0F4FFBD
:1000B8006BC0F3FF6AC0DAFF69C0D9FF68C0E2FF0E
:1000C80067C0E1FF66C0EAFF65C0E9FF64C0FBFFE7
:1000D80063C0FAFF62C0E0FF61C0E8FF60C0D8FFFC
:0800E800449010006EEF0CF0D3
:100800000001000A006400E8031027010010000046
:100810000100103031323334353637383961626394
:10082000646566005B415D005B4D5D0025640025ED
:1008300078004100450049004C0050005200530030
:090840005500240026003A0000D6
:10084A00050E00019E6F0F0E9D6FF10EE82EFED76A
:10085A009D2FFCD79E2FFAD76BEC0EF03A0E0001B3
:10086A00826F080E836F250E856F800E846F010ECE
:10087A00866F2DEC0CF0010E06EC0EF018EC0EF063
:10088A004CEC0EF05CEC0EF0050E00019E6F0F0EA4
:10089A009D6FF10EE82EFED79D2FFCD79E2FFAD71B
:1008AA00000E356E000E346E000E386E000E396E74
:1008BA00000E376E050E00019E6F0F0E9D6FF10E32
:1008CA00E82EFED79D2FFCD79E2FFAD78168385085
:1008DA00D8B409D0000E7AEC0EF0000E3B6E42EC52
:1008EA000BF0000E386E3C50D8B4C3D0000E3C6EEC
:1008FA00C4EC0DF020EE2EF0050EEBCFDBFFE80680
:10090A00FCE281BA04D000019D6B9D2B02D000014C
:10091A009D6B9D3B9D4781509D19DF0B9D19816EF3
:10092A00000E3A6E030E3418D8A402D0000E356EAB
:10093A0030C075F031C076F0380E776F080E786FD8
:10094A005AEC0DF0000175517611D8A406D0000EAC
:10095A003B6E010E7AEC0EF08CD030C075F031C0CF
:10096A0076F0400E0001776F080E786F5AEC0DF0A2
:10097A00000175517611D8A408D0000E3B6E000E06
:10098A007AEC0EF0E8EC0AF074D030C075F031C0A1
:10099A0076F0360E0001776F080E786F5AEC0DF07C
:1009AA00000175517611D8A40BD032C0D9FF33C0DB
:1009BA00DAFFDF50D00F2AEC0EF0010E376E59D055
:1009CA0030C075F031C076F03C0E0001776F080E2A
:1009DA00786F5AEC0DF0000175517611D8A40BD03E
:1009EA00680E00019D6FE40EE82EFED79D2FFCD7FE
:1009FA0000F0FF003ED030C075F031C076F03A0EFC
:100A0A000001776F080E786F5AEC0DF000017551EE
:100A1A007611D8A40AD03E0E8F6F080E906F37C099
:100A2A0091F0926B23EC0AF024D030C075F031C0FB
:100A3A0076F0320E0001776F080E786F5AEC0DF0DF
:100A4A00000175517611D8A409D032C0D9FF33C03C
:100A5A00DAFFDF50D00F8EEC0EF00BD0340E00010F
:100A6A008F6F080E906F400E916F080E926FB3EC65
:100A7A0009F03950D8B42BD7000E396E9BEC0BF025
:100A8A003CEC09F03C0E3A6002D03A2A05D03450C8
:100A9A00D8A402D0030E356E34503518D8A417D016
:100AAA003504D8B414D0030E3518D8B410D00FD7E3
:100ABA00000E0BD03650D8A402D0010E366E365036
:100ACA00020DF3CF36F011D07F0E366E0ED03550B0
:100ADA00000AD8B4EDD7010AD8B4ECD7030AD8B4BF
:100AEA00F3D7010AD8B4E6D7E3D73650DBEC0DF0DA
:100AFA0035C034F0ECD6840E0001886F000E896F81
:100B0A000AD1250E8E19D8B404D08E51F2EC0DF00C
:100B1A0002D1000E00018B6F06D08B8F2AD08E5126
:100B2A00F2EC0DF0F8D081C0F6FF82C0F7FF83C067
:100B3A00F8FF010E00018127000E82238323F8BAF1
:100B4A0003D00800F55005D0F6CFE9FFF7CFEAFF4A
:100B5A00EF5000018E6F8E51000AD8B41200640A59
:100B6A00D8B407D00D0AD8B404D0110AD8B4D5D74E
:100B7A00D6D700018BBF15D088C0D9FF89C0DAFF4C
:100B8A00DECF8CF0DDCF8DF0020E8827000E892390
:100B9A008DAF4AD0030E8B138C6D8D1FD8B08D2B61
:100BAA0043D088C0D9FF89C0DAFFDECF8CF0DDCF11
:100BBA008DF0020E8827000E892336D0010E8E6F23
:100BCA00050E8E19D8B438D08E51020D010EF324B9
:100BDA00F66E080EF420F76EF86A000EF822090085
:100BEA00F5508C5D0900F5508D59D8A025D08E2B73
:100BFA00E7D7010E8E6F040E8E19D8B41DD08E5110
:100C0A00020D0B0EF324F66E080EF420F76EF86A46
:100C1A00000EF8220900F5508C5D0900F5508D5937
:100C2A00D8A00AD08E2BE7D78B51800B000AD8B4F4
:100C3A00C5D7800AD8B4DDD78BC086F0030E8617D5
:100C4A00D8B403D02D0EF2EC0DF08EC08AF05ED02F
:100C5A0000018A51020D010EF324F66E080EF420EB
:100C6A00F76EF86A000EF8220900F5CF77F00A004D
:100C7A00F5CF78F08CC075F08DC076F007EC0DF0EA
:100C8A0075C07CF076C07DF0000E00017F6F0A0E01
:100C9A007E6F81EC0DF000017C51300F8E6F33D0E6
:100CAA008CC075F08DC076F08A51020D0B0EF324BC
:100CBA00F66E080EF420F76EF86A000EF8220900A4
:100CCA00F5CF77F00A00F5CF78F007EC0DF00001C8
:100CDA0075510F0B876F8751010D130EF324F66EB2
:100CEA00080EF420F76EF86A000EF8220800F5CF15
:100CFA008EF009D000018B51800B000AD8B4A8D716
:100D0A00800AD8B4CDD78E51F2EC0DF000018A07D3
:100D1A008A29D8A4EFD781C0F6FF82C0F7FF83C023
:100D2A00F8FF010E00018127000E82238323F8BAFF
:100D3A0003D00800F55005D0F6CFE9FFF7CFEAFF58
:100D4A00EF5000018E6F8E51D8B41200DAD6100E11
:100D5A00146E000E156E00D1250E1A18D8B404D0E0
:100D6A001A503BEC0EF0F8D0000E176E06D0178E14
:100D7A0028D01A503BEC0EF0EFD00DC0F6FF0EC093
:100D8A00F7FF0FC0F8FF010E0D26000E0E220F22EC
:100D9A00F8BA03D00800F55005D0F6CFE9FFF7CF2F
:100DAA00EAFFEF501A6E1A50000AD8B41200640A09
:100DBA00D8B407D00D0AD8B404D0110AD8B4D7D7FA
:100DCA00D8D717BE15D014C0D9FF15C0DAFFDECFA9
:100DDA0018F0DDCF19F0020E1426000E152219AEF6
:100DEA004AD0030E1712186C191ED8B0192A43D00C
:100DFA0014C0D9FF15C0DAFFDECF18F0DDCF19F025
:100E0A00020E1426000E152236D0010E1A6E050E99
:100E1A001A18D8B438D01A50020D010EF324F66EFF
:100E2A00080EF420F76EF86A000EF8220900F55051
:100E3A00185C0900F5501958D8A025D01A2AE7D706
:100E4A00010E1A6E040E1A18D8B41DD01A50020DCB
:100E5A000B0EF324F66E080EF420F76EF86A000EF5
:100E6A00F8220900F550185C0900F5501958D8A065
:100E7A000AD01A2AE7D71750800B000AD8B4C5D768
:100E8A00800AD8B4DDD717C012F0030E1216D8B4F0
:100E9A0003D02D0E3BEC0EF01AC016F059D01650A6
:100EAA00020D010EF324F66E080EF420F76EF86AAE
:100EBA00000EF8220900F5CF03F00A00F5CF04F07E
:100ECA0018C001F019C002F031EC0DF001C008F0B1
:100EDA0002C009F0000E0B6E0A0E0A6EA3EC0DF0AA
:100EEA000850300F1A6E31D018C001F019C002F044
:100EFA001650020D0B0EF324F66E080EF420F76E50
:100F0A00F86A000EF8220900F5CF03F00A00F5CFBF
:100F1A0004F031EC0DF001500F0B136E1350010D5C
:100F2A00130EF324F66E080EF420F76EF86A000E1C
:100F3A00F8220800F5CF1AF008D01750800B000AE3
:100F4A00D8B4ADD7800AD8B4CFD71A503BEC0EF03C
:100F5A0016061628D8A4F1D70DC0F6FF0EC0F7FF63
:100F6A000FC0F8FF010E0D26000E0E220F22F8BA4E
:100F7A0003D00800F55005D0F6CFE9FFF7CFEAFF16
:100F8A00EF501A6E1A50D8B41200E6D61B6EB1D0C2
:100F9A00260E1B18D8A40ED0000E01010A6F000EEF
:100FAA003D6F000E706F000EA36F000E3C6E010EB7
:100FBA00A56F1200000E0101A56F12003A0E1B1850
:100FCA00D8A40DD0020EA56F0A51010D000EF3240C
:100FDA00D96E010EF420DA6E000EDF6E12000A518D
:100FEA00010D000EF324D96E010EF420DA6E1BC037
:100FFA00DFFF0A2B0A0E0A651200000E0A6F1200A2
:10100A003A0E1B18D8A40DD0030EA56F3D51010D41
:10101A000B0EF324D96E010EF420DA6E000EDF6E89
:10102A0012003D51010D0B0EF324D96E010EF4206E
:10103A00DA6E1BC0DFFF3D2B320E3D651200000E3B
:10104A003D6F12003A0E1B18D8A40DD0040EA56FDE
:10105A007051010D3E0EF324D96E010EF420DA6EA2
:10106A00000EDF6E12007051010D3E0EF324D96E90
:10107A00010EF420DA6E1BC0DFFF702B320E706592
:10108A001200000E706F12003A0E1B18D8A40DD071
:10109A00050EA56FA351010D710EF324D96E010E31
:1010AA00F420DA6E000EDF6E1200A351010D710EEC
:1010BA00F324D96E010EF420DA6E1BC0DFFFA32BD6
:1010CA00320EA3651200000EA36F1200240E1B1825
:1010DA00D8A408D0D7EC0CF0000E0101A56F010EC0
:1010EA003C6E12001B50D00FA46F1200000EA56FA9
:1010FA0012000101A551000AD8B44AD7010AD8B48E
:10110A005DD7030AD8B47CD7010AD8B49BD7070A9B
:10111A00D8B4BAD7010AD8B4D9D7E8D70001786FBA
:10112A0078C0A8F00001A96B000E796F92D07951AE
:10113A000A0D000EF324D96E020EF420DA6E79C07D
:10114A00DFFF79510A0D010EF326000EF422000E7C
:10115A00F324D96E020EF420DA6E010EDF6E795195
:10116A000A0D020EF326000EF422000EF324D96EA5
:10117A00020EF420DA6E810EDE6E0F0EDD6E7951EC
:10118A000A0D040EF326000EF422000EF324D96E83
:10119A00020EF420DA6E79C0DFFF79510A0D060ECD
:1011AA00F326000EF422000EF324D96E020EF42068
:1011BA00DA6E000EDF6E79510A0D050EF326000E67
:1011CA00F422000EF324D96E020EF420DA6E010E18
:1011DA00DF6E79510A0D070EF326000EF422000E77
:1011EA00F324D96E020EF420DA6E800EDE6E0F0E34
:1011FA00DD6E79510A0D090EF326000EF422000E57
:10120A00F324D96E020EF420DA6E7929DF6E79C0E2
:10121A0075F0010E766F752B02D0D8907637752F40
:10122A00FCD7000176519314931A9250FF0A756FF6
:10123A0079C076F0010E7627010E776F762B02D0F1
:10124A00D8907737762FFCD7000177517515921A07
:10125A00792B7951756F766BA851755D7651800A35
:10126A00776FA951800A7759D8B0120060D7000E5B
:10127A0000019C6F65D09C510A0D060EF326000EE4
:10128A00F422000EF324D96E020EF420DA6E9C5179
:10129A000A0D050EF326000EF422000EF324E16E69
:1012AA00020EF420E26EDE50E618D8B448D09C5103
:1012BA000A0D000EF324D96E020EF420DA6E00EE47
:1012CA0075F0090EDBCFEBFFE806FCE2970E7F6FA5
:1012DA00000E806F9A0E816F000E826FA7EC0CF0E1
:1012EA00970E00018F6F000E906F9A0E916F000E8D
:1012FA00926FB3EC09F0060E0001946F300EE82EDF
:10130A00FED7942FFCD700F000019C510A0D060E5F
:10131A00F326000EF422000EF324D96E020EF420F6
:10132A00DA6E9C510A0D050EF326000EF422000E09
:10133A00F324E16E020EF420E26EDFCFE7FF9C2B6E
:10134A009C51946F956BA851945D9551800A966F44
:10135A00A951800A9659D8B012008DD742C081F09F
:10136A0043C082F0000181518211D8A4000E836F1C
:10137A0080EC05F0AAC081F0ABC082F00001815177
:10138A008211D8A4000E836F80EC05F0A5C081F00D
:10139A00A6C082F0A7C083F080EC05F0460E0001DB
:1013AA00816F080E826F81518211D8A4000E836F5B
:1013BA0080EC05F08FC081F090C082F00001836B51
:1013CA0081518211D8B405D0070E906501D001D0A1
:1013DA00838B80EC05F0460E0001816F080E826F48
:1013EA0081518211D8A4000E836F80EC05F091C060
:1013FA0081F092C082F00001836B81518211D8B4CE
:10140A0005D0070E926501D001D0838B80EC05F0E0
:10141A0040C081F041C082F0000181518211D8A4FC
:10142A00000E836F80EC05F0060E0001936F300EFC
:10143A00E82EFED7932FFCD700F0120042C081F0AD
:10144A0043C082F0000181518211D8A4000E836F3B
:10145A0080EC05F0AAC081F0ABC082F00001815196
:10146A008211D8A4000E836F80EC05F0A5C081F02C
:10147A00A6C082F0A7C083F080EC05F0460E0001FA
:10148A00816F080E826F81518211D8A4000E836F7A
:10149A0080EC05F08FC081F090C082F0000181518C
:1014AA008211D8A4000E836F80EC05F0460E00016D
:1014BA00816F080E826F81518211D8A4000E836F4A
:1014CA0080EC05F02C0E0001816F080E826F8151AD
:1014DA008211D8A4000E836F91C084F092C085F067
:1014EA0080EC05F040C081F041C082F000018151DA
:1014FA008211D8A4000E836F80EC05F0060E00015D
:10150A00936F300EE82EFED7932FFCD700F012000F
:10151A000600FACF1CF0FBCF1DF0E9CF1EF0EACF90
:10152A001FF0E1CF20F0E2CF21F0D9CF22F0DACFBD
:10153A0023F0F3CF24F0F4CF25F0F6CF26F0F7CF3F
:10154A0027F0F8CF28F0F5CF29F044C02AF045C09B
:10155A002BF046C02CF047C02DF09EAA0ED09E9AC2
:10156A00ABA403D0000EAE6E08D0ABA203D0AB98EA
:10157A00AB8803D0AE50CBEC07F02DC047F02CC09F
:10158A0046F02BC045F02AC044F029C0F5FF28C018
:10159A00F8FF27C0F7FF26C0F6FF25C0F4FF24C0D6
:1015AA00F3FF23C0DAFF22C0D9FF21C0E2FF20C027
:1015BA00E1FF1FC0EAFF1EC0E9FF1DC0FBFF1CC000
:1015CA00FAFF44921100000E00017D6F48D07D5150
:1015DA000A0D020EF326000EF422000EF324D96E31
:1015EA00020EF420DA6EDECF75F0DDCF76F075C02C
:1015FA00D9FF76C0DAFFDF50FF0A776F7D510A0DF7
:10160A00040EF326000EF422000EF324D96E020E05
:10161A00F420DA6EDF50786F010E796F782B02D0E2
:10162A00D8907937782FFCD70001795177157A6FDE
:10163A007D510A0D020EF326000EF422000EF32449
:10164A00D96E020EF420DA6EDECF7BF0DDCF7CF0AD
:10165A007BC0D9FF7CC0DAFF7A51DF1A7D2B7D511E
:10166A00756F766BA851755D7651800A776FA951AF
:10167A00800A7759D8B01200AAD7000E00017D6FF0
:10168A0047D07D510A0D020EF326000EF422000EF9
:10169A00F324D96E020EF420DA6EDECF75F0DDCFB8
:1016AA0076F075C0D9FF76C0DAFFDF50776F7D51CB
:1016BA000A0D040EF326000EF422000EF324D96E4E
:1016CA00020EF420DA6EDF50786F010E796F782BF4
:1016DA0002D0D8907937782FFCD700017951771545
:1016EA007A6F7D510A0D020EF326000EF422000EC7
:1016FA00F324D96E020EF420DA6EDECF7BF0DDCF52
:10170A007CF07BC0D9FF7CC0DAFF7A51DF1A7D2BCF
:10171A007D51756F766BA851755D7651800A776F2A
:10172A00A951800A7759D8B01200ABD7000E000130
:10173A00796F3ED079510A0D060EF326000EF42277
:10174A00000EF324D96E020EF420DA6E79510A0DD6
:10175A00090EF326000EF422000EF324E16E020EA7
:10176A00F420E26EE750756F79510A0D070EF326E1
:10177A00000EF422000EF324E16E020EF420E26E53
:10178A00E6CF76F0E5CF77F076C0E1FF77C0E2FFEB
:10179A00E750786F752B02D0D8907833752FFCD725
:1017AA00000178B102D0010E01D0000EDF6E792B54
:1017BA007951756F766BA851755D7651800A776F8E
:1017CA00A951800A7759D8B01200B4D7000E000187
:1017DA007D6F000E7E6F000E7F6F000E806F795155
:1017EA007A117B117C11D8B42AD0010E816F06D0F0
:1017FA00D89079377A377B377C37812B7CAFF8D70B
:10180A00D8907D377E377F3780377951755D7A5129
:10181A0076597B5177597C517859D8A009D079519A
:10182A00755F7A51765B7B51775B7C51785B7D8102
:10183A00D8907C337B337A337933812FE1D77DC0DB
:10184A0075F07EC076F07FC077F080C078F0120025
:10185A0082C0A5F083C0A6F00001A551A611D8A4A4
:10186A00000EA76F000E3C6E000E06EC0EF0AB9455
:10187A00AB92000EAE6EAC9CAC98AC94AB9CB89A92
:10188A00B898B896000E0001756F240E766FF40EA4
:10189A00776F000E786F84C079F085C07AF07B6B21
:1018AA007C6BEBEC0BF0070E06D00001D890783376
:1018BA00773376337533E82EF8D77505AF6E8651D0
:1018CA00D8B41200D08EF28EF28C9E9A9F8A9D8A8C
:1018DA0012002C0EF66E1D0EF76E000EF86E090041
:1018EA00F5CFAAF00900F5CFABF0260EF66E1D0E65
:1018FA00F76E000EF86E00EE3EF010EE06F00900EC
:10190A00F5CFEEFFE550E150FAE102EE00F0640E89
:10191A00EE6AE806FDE101EE00F0A60EEE6AE806C0
:10192A00FDE100EE9FF00B0EEE6AE806FDE100EE27
:10193A002EF0100EEE6AE806FDE144904492000192
:10194A0025EF04F07FC0D9FF80C0DAFF440EDF6EB6
:10195A00000120EE01F07F51D9268051DA2275511B
:10196A00300FDF6E20EE02F07F51D9268051DA2245
:10197A00000EDF6E7B51D8B406D081C0D9FF82C079
:10198A00DAFF430E05D081C0D9FF82C0DAFF4F0EBD
:10199A00DF6E20EE01F08151D9268251DA22000E43
:1019AA00DF6E120042C00DF043C00EF00D500E1053
:1019BA00D8A4000E0F6EACEC06F03EC00DF03FC08E
:1019CA000EF00D500E10D8A4000E0F6EACEC06F0FF
:1019DA002F0E0D6E080E0E6E0D500E10D8A4000EAE
:1019EA000F6EA4C110F0116AACEC06F040C00DF005
:1019FA0041C00EF00D500E10D8A4000E0F6EACECC4
:101A0A0006F01200000E00017B6F000E7A6F77510C
:101A1A007811D8B41CD0010E796F04D0D8907737DA
:101A2A007837792B78AFFAD7D8907A377B377751CE
:101A3A00755D78517659D8A005D07751755F785180
:101A4A00765B7A81D89078337733792FEDD77AC05D
:101A5A0075F07BC076F01200000E066E000E056E61
:101A6A0003500410D8B41CD0010E076E04D0D890CD
:101A7A0003360436072A04AEFAD7D8900536063656
:101A8A000350015C04500258D8A005D00350015EEF
:101A9A000450025A0580D89004320332072EEDD73B
:101AAA0005C001F006C002F0120005D00001754B16
:101ABA00762B774B782B75C0D9FF76C0DAFFDF50CB
:101ACA000001796F77C0F6FF78C0F7FFF86A08005F
:101ADA00F550000879257A6F7A51D8A407D075C0D5
:101AEA00D9FF76C0DAFFDF50D8A4E0D77A51756FF4
:101AFA00766B75BF7607120000017E517F11D8B44C
:101B0A0018D0010E806F04D0D8907E377F37802B93
:101B1A007FAFFAD77E517C5D7F517D59D8A004D022
:101B2A007E517C5F7F517D5BD8907F337E33802FDF
:101B3A00F1D77CC07CF07DC07DF012000A500B10FA
:101B4A00D8B418D0010E0C6E04D0D8900A360B36D1
:101B5A000C2A0BAEFAD70A50085C0B500958D8A0C9
:101B6A0004D00A50085E0B50095AD8900B320A3238
:101B7A000C2EF1D708C008F009C009F012000B0EAC
:101B8A0000019F6F010EA06F3E0EA16F010EA26FA2
:101B9A00710EA36F010EA46F20EE9FF000EE75F098
:101BAA00050EDBCFEBFFE806FCE212000001756FC1
:101BBA0000017551D8B40AD0CAB405D0BD50F00B93
:101BCA000C09BD6ECA8475C0BEFF1200BD90BD92DD
:101BDA00BD94BD96CA94829412000001756F000EDE
:101BEA000001766F05D0762B060EE82EFED700D0C0
:101BFA00ACB204D0C70E00017665F5D775C0ADFF4B
:101C0A0012000001756F00017551D8B406D0949E78
:101C1A00948CAC8AAB88AB8E1200949E949CAC9A3E
:101C2A00AB98AB9E1200000E84EC0EF0D59CD59AB0
:101C3A00D598D596D550F80B0209D56ED08EF28E6E
:101C4A00F28CF294F194F28A120000017E6F000184
:101C5A007E51D8A402D0010E7E6F7E5193EC08F01B
:101C6A0042EC0BF0010E84EC0EF01200016E000E35
:101C7A00026E05D0022A060EE82EFED700D0ACB2BC
:101C8A0003D0C70E0264F6D701C0ADFF1200000EE2
:101C9A007AEC0EF0CD8ECD9CCF0ECD16CD96CD9290
:101CAA00D08EF28EF28C9E909F909D801200CB680F
:101CBA00CA94CA50FC0B0109CA6ECA96CA98CA9A33
:101CCA00CA9C1F0EBE6ECF0EBD161200000E926E7B
:101CDA00000E806E000E936E000E816E000E946EE2
:101CEA00000E826E0F0EC16E12000001756F0001A8
:101CFA007551D8B402D0CD801200CD9012000001E7
:101D0A00756F00017551D8B402D0D58E1200D59ED8
:101D1A0012000001756F75C035F0120024084208E0
:041D2A004408280839
:020000040020DA
:08000000FFFFFFFFFFFFFFFF00
:020000040030CA
:0E000000040C1F1EFF8080FF0FC00FE00F409A
:00000001FF
